{
  "_format": "hh-sol-artifact-1",
  "contractName": "Authorizable",
  "sourceName": "contracts/Authorizable.sol",
  "abi": [
    {
      "anonymous": false,
      "inputs": [
        {
          "indexed": true,
          "internalType": "address",
          "name": "previousOwner",
          "type": "address"
        },
        {
          "indexed": true,
          "internalType": "address",
          "name": "newOwner",
          "type": "address"
        }
      ],
      "name": "OwnershipTransferred",
      "type": "event"
    },
    {
      "inputs": [
        {
          "internalType": "address",
          "name": "_toAdd",
          "type": "address"
        }
      ],
      "name": "addAuthorized",
      "outputs": [],
      "stateMutability": "nonpayable",
      "type": "function"
    },
    {
      "inputs": [
        {
          "internalType": "address",
          "name": "",
          "type": "address"
        }
      ],
      "name": "authorized",
      "outputs": [
        {
          "internalType": "bool",
          "name": "",
          "type": "bool"
        }
      ],
      "stateMutability": "view",
      "type": "function"
    },
    {
      "inputs": [],
      "name": "owner",
      "outputs": [
        {
          "internalType": "address",
          "name": "",
          "type": "address"
        }
      ],
      "stateMutability": "view",
      "type": "function"
    },
    {
      "inputs": [
        {
          "internalType": "address",
          "name": "_toRemove",
          "type": "address"
        }
      ],
      "name": "removeAuthorized",
      "outputs": [],
      "stateMutability": "nonpayable",
      "type": "function"
    },
    {
      "inputs": [],
      "name": "renounceOwnership",
      "outputs": [],
      "stateMutability": "nonpayable",
      "type": "function"
    },
    {
      "inputs": [
        {
          "internalType": "address",
          "name": "newOwner",
          "type": "address"
        }
      ],
      "name": "transferOwnership",
      "outputs": [],
      "stateMutability": "nonpayable",
      "type": "function"
    }
  ],
  "bytecode": "0x608060405234801561001057600080fd5b5061002d61002261003260201b60201c565b61003a60201b60201c565b6100fe565b600033905090565b60008060009054906101000a900473ffffffffffffffffffffffffffffffffffffffff169050816000806101000a81548173ffffffffffffffffffffffffffffffffffffffff021916908373ffffffffffffffffffffffffffffffffffffffff1602179055508173ffffffffffffffffffffffffffffffffffffffff168173ffffffffffffffffffffffffffffffffffffffff167f8be0079c531659141344cd1fd0a4f28419497f9722a3daafe3b4186f6b6457e060405160405180910390a35050565b6108338061010d6000396000f3fe608060405234801561001057600080fd5b50600436106100625760003560e01c8063485d7d9414610067578063715018a6146100835780638da5cb5b1461008d578063b9181611146100ab578063cf1c316a146100db578063f2fde38b146100f7575b600080fd5b610081600480360381019061007c9190610661565b610113565b005b61008b61025b565b005b6100956102e3565b6040516100a2919061069d565b60405180910390f35b6100c560048036038101906100c09190610661565b61030c565b6040516100d291906106d3565b60405180910390f35b6100f560048036038101906100f09190610661565b61032c565b005b610111600480360381019061010c9190610661565b61043b565b005b61011b610532565b73ffffffffffffffffffffffffffffffffffffffff166101396102e3565b73ffffffffffffffffffffffffffffffffffffffff161461018f576040517f08c379a00000000000000000000000000000000000000000000000000000000081526004016101869061074b565b60405180910390fd5b600073ffffffffffffffffffffffffffffffffffffffff168173ffffffffffffffffffffffffffffffffffffffff16036101c857600080fd5b3373ffffffffffffffffffffffffffffffffffffffff168173ffffffffffffffffffffffffffffffffffffffff160361020057600080fd5b6000600160008373ffffffffffffffffffffffffffffffffffffffff1673ffffffffffffffffffffffffffffffffffffffff16815260200190815260200160002060006101000a81548160ff02191690831515021790555050565b610263610532565b73ffffffffffffffffffffffffffffffffffffffff166102816102e3565b73ffffffffffffffffffffffffffffffffffffffff16146102d7576040517f08c379a00000000000000000000000000000000000000000000000000000000081526004016102ce9061074b565b60405180910390fd5b6102e1600061053a565b565b60008060009054906101000a900473ffffffffffffffffffffffffffffffffffffffff16905090565b60016020528060005260406000206000915054906101000a900460ff1681565b610334610532565b73ffffffffffffffffffffffffffffffffffffffff166103526102e3565b73ffffffffffffffffffffffffffffffffffffffff16146103a8576040517f08c379a000000000000000000000000000000000000000000000000000000000815260040161039f9061074b565b60405180910390fd5b600073ffffffffffffffffffffffffffffffffffffffff168173ffffffffffffffffffffffffffffffffffffffff16036103e157600080fd5b60018060008373ffffffffffffffffffffffffffffffffffffffff1673ffffffffffffffffffffffffffffffffffffffff16815260200190815260200160002060006101000a81548160ff02191690831515021790555050565b610443610532565b73ffffffffffffffffffffffffffffffffffffffff166104616102e3565b73ffffffffffffffffffffffffffffffffffffffff16146104b7576040517f08c379a00000000000000000000000000000000000000000000000000000000081526004016104ae9061074b565b60405180910390fd5b600073ffffffffffffffffffffffffffffffffffffffff168173ffffffffffffffffffffffffffffffffffffffff1603610526576040517f08c379a000000000000000000000000000000000000000000000000000000000815260040161051d906107dd565b60405180910390fd5b61052f8161053a565b50565b600033905090565b60008060009054906101000a900473ffffffffffffffffffffffffffffffffffffffff169050816000806101000a81548173ffffffffffffffffffffffffffffffffffffffff021916908373ffffffffffffffffffffffffffffffffffffffff1602179055508173ffffffffffffffffffffffffffffffffffffffff168173ffffffffffffffffffffffffffffffffffffffff167f8be0079c531659141344cd1fd0a4f28419497f9722a3daafe3b4186f6b6457e060405160405180910390a35050565b600080fd5b600073ffffffffffffffffffffffffffffffffffffffff82169050919050565b600061062e82610603565b9050919050565b61063e81610623565b811461064957600080fd5b50565b60008135905061065b81610635565b92915050565b600060208284031215610677576106766105fe565b5b60006106858482850161064c565b91505092915050565b61069781610623565b82525050565b60006020820190506106b2600083018461068e565b92915050565b60008115159050919050565b6106cd816106b8565b82525050565b60006020820190506106e860008301846106c4565b92915050565b600082825260208201905092915050565b7f4f776e61626c653a2063616c6c6572206973206e6f7420746865206f776e6572600082015250565b60006107356020836106ee565b9150610740826106ff565b602082019050919050565b6000602082019050818103600083015261076481610728565b9050919050565b7f4f776e61626c653a206e6577206f776e657220697320746865207a65726f206160008201527f6464726573730000000000000000000000000000000000000000000000000000602082015250565b60006107c76026836106ee565b91506107d28261076b565b604082019050919050565b600060208201905081810360008301526107f6816107ba565b905091905056fea26469706673582212204e3537d87cd307467782212db2dffef3abf28475e9693cbbf54a6a0f352ec17c64736f6c634300080d0033",
  "linkReferences": {},
  "deployedLinkReferences": {}
}