{
  "_format": "hh-sol-artifact-1",
  "contractName": "BulkSender",
  "sourceName": "contracts/BulkSender.sol",
  "abi": [
    {
      "anonymous": false,
      "inputs": [
        {
          "indexed": false,
          "internalType": "address",
          "name": "token",
          "type": "address"
        },
        {
          "indexed": false,
          "internalType": "address",
          "name": "from",
          "type": "address"
        },
        {
          "indexed": false,
          "internalType": "uint256",
          "name": "total",
          "type": "uint256"
        }
      ],
      "name": "LogTokenBulkSent",
      "type": "event"
    },
    {
      "anonymous": false,
      "inputs": [
        {
          "indexed": false,
          "internalType": "address",
          "name": "from",
          "type": "address"
        },
        {
          "indexed": false,
          "internalType": "uint256",
          "name": "total",
          "type": "uint256"
        }
      ],
      "name": "LogTokenBulkSentETH",
      "type": "event"
    },
    {
      "anonymous": false,
      "inputs": [
        {
          "indexed": true,
          "internalType": "address",
          "name": "previousOwner",
          "type": "address"
        },
        {
          "indexed": true,
          "internalType": "address",
          "name": "newOwner",
          "type": "address"
        }
      ],
      "name": "OwnershipTransferred",
      "type": "event"
    },
    {
      "inputs": [
        {
          "internalType": "address",
          "name": "_toAdd",
          "type": "address"
        }
      ],
      "name": "addAuthorized",
      "outputs": [],
      "stateMutability": "nonpayable",
      "type": "function"
    },
    {
      "inputs": [
        {
          "internalType": "address",
          "name": "",
          "type": "address"
        }
      ],
      "name": "authorized",
      "outputs": [
        {
          "internalType": "bool",
          "name": "",
          "type": "bool"
        }
      ],
      "stateMutability": "view",
      "type": "function"
    },
    {
      "inputs": [
        {
          "internalType": "address[]",
          "name": "_to",
          "type": "address[]"
        },
        {
          "internalType": "uint256[]",
          "name": "_value",
          "type": "uint256[]"
        }
      ],
      "name": "ethSendDifferentValue",
      "outputs": [],
      "stateMutability": "payable",
      "type": "function"
    },
    {
      "inputs": [
        {
          "internalType": "address[]",
          "name": "_to",
          "type": "address[]"
        },
        {
          "internalType": "uint256",
          "name": "_value",
          "type": "uint256"
        }
      ],
      "name": "ethSendSameValue",
      "outputs": [],
      "stateMutability": "payable",
      "type": "function"
    },
    {
      "inputs": [],
      "name": "owner",
      "outputs": [
        {
          "internalType": "address",
          "name": "",
          "type": "address"
        }
      ],
      "stateMutability": "view",
      "type": "function"
    },
    {
      "inputs": [
        {
          "internalType": "address",
          "name": "_toRemove",
          "type": "address"
        }
      ],
      "name": "removeAuthorized",
      "outputs": [],
      "stateMutability": "nonpayable",
      "type": "function"
    },
    {
      "inputs": [],
      "name": "renounceOwnership",
      "outputs": [],
      "stateMutability": "nonpayable",
      "type": "function"
    },
    {
      "inputs": [
        {
          "internalType": "address",
          "name": "_tokenAddress",
          "type": "address"
        },
        {
          "internalType": "address[]",
          "name": "_to",
          "type": "address[]"
        },
        {
          "internalType": "uint256[]",
          "name": "_value",
          "type": "uint256[]"
        }
      ],
      "name": "sendDifferentValue",
      "outputs": [],
      "stateMutability": "nonpayable",
      "type": "function"
    },
    {
      "inputs": [
        {
          "internalType": "address",
          "name": "_tokenAddress",
          "type": "address"
        },
        {
          "internalType": "address[]",
          "name": "_to",
          "type": "address[]"
        },
        {
          "internalType": "uint256",
          "name": "_value",
          "type": "uint256"
        }
      ],
      "name": "sendSameValue",
      "outputs": [],
      "stateMutability": "nonpayable",
      "type": "function"
    },
    {
      "inputs": [
        {
          "internalType": "address",
          "name": "newOwner",
          "type": "address"
        }
      ],
      "name": "transferOwnership",
      "outputs": [],
      "stateMutability": "nonpayable",
      "type": "function"
    }
  ],
  "bytecode": "0x608060405234801561001057600080fd5b5061002d61002261003260201b60201c565b61003a60201b60201c565b6100fe565b600033905090565b60008060009054906101000a900473ffffffffffffffffffffffffffffffffffffffff169050816000806101000a81548173ffffffffffffffffffffffffffffffffffffffff021916908373ffffffffffffffffffffffffffffffffffffffff1602179055508173ffffffffffffffffffffffffffffffffffffffff168173ffffffffffffffffffffffffffffffffffffffff167f8be0079c531659141344cd1fd0a4f28419497f9722a3daafe3b4186f6b6457e060405160405180910390a35050565b6119608061010d6000396000f3fe6080604052600436106100915760003560e01c80638602c8d3116100595780638602c8d3146101445780638da5cb5b14610160578063b91816111461018b578063cf1c316a146101c8578063f2fde38b146101f157610091565b8063161676001461009657806320fa6fd9146100bf578063485d7d94146100db578063715018a614610104578063848da8301461011b575b600080fd5b3480156100a257600080fd5b506100bd60048036038101906100b89190611192565b61021a565b005b6100d960048036038101906100d49190611206565b61042c565b005b3480156100e757600080fd5b5061010260048036038101906100fd9190611266565b610671565b005b34801561011057600080fd5b506101196107b9565b005b34801561012757600080fd5b50610142600480360381019061013d91906112e9565b610841565b005b61015e6004803603810190610159919061137e565b610acf565b005b34801561016c57600080fd5b50610175610d48565b604051610182919061140e565b60405180910390f35b34801561019757600080fd5b506101b260048036038101906101ad9190611266565b610d71565b6040516101bf9190611444565b60405180910390f35b3480156101d457600080fd5b506101ef60048036038101906101ea9190611266565b610d91565b005b3480156101fd57600080fd5b5061021860048036038101906102139190611266565b610ea0565b005b600160003373ffffffffffffffffffffffffffffffffffffffff1673ffffffffffffffffffffffffffffffffffffffff16815260200190815260200160002060009054906101000a900460ff16806102a457503373ffffffffffffffffffffffffffffffffffffffff1661028c610d48565b73ffffffffffffffffffffffffffffffffffffffff16145b6102ad57600080fd5b600033905060c88484905011156102f9576040517f08c379a00000000000000000000000000000000000000000000000000000000081526004016102f0906114bc565b60405180910390fd5b60006103118386869050610f9790919063ffffffff16565b9050600086905060005b868690508160ff1610156103e7578173ffffffffffffffffffffffffffffffffffffffff166323b872dd8589898560ff1681811061035c5761035b6114dc565b5b90506020020160208101906103719190611266565b886040518463ffffffff1660e01b81526004016103909392919061151a565b6020604051808303816000875af11580156103af573d6000803e3d6000fd5b505050506040513d601f19601f820116820180604052508101906103d3919061157d565b5080806103df906115e6565b91505061031b565b507f50a5a05e4fcf8317a50616363e195b0a9c76db2e758ebbc24078f086e7f62c9787848460405161041b9392919061151a565b60405180910390a150505050505050565b600160003373ffffffffffffffffffffffffffffffffffffffff1673ffffffffffffffffffffffffffffffffffffffff16815260200190815260200160002060009054906101000a900460ff16806104b657503373ffffffffffffffffffffffffffffffffffffffff1661049e610d48565b73ffffffffffffffffffffffffffffffffffffffff16145b6104bf57600080fd5b60006104d78285859050610f9790919063ffffffff16565b90506000349050600033905082821015610526576040517f08c379a000000000000000000000000000000000000000000000000000000000815260040161051d9061165b565b60405180910390fd5b60c886869050111561056d576040517f08c379a0000000000000000000000000000000000000000000000000000000008152600401610564906114bc565b60405180910390fd5b60005b868690508160ff16101561062f5786868260ff16818110610594576105936114dc565b5b90506020020160208101906105a99190611266565b73ffffffffffffffffffffffffffffffffffffffff166108fc869081150290604051600060405180830381858888f1935050505061061c576040517f08c379a0000000000000000000000000000000000000000000000000000000008152600401610613906116c7565b60405180910390fd5b8080610627906115e6565b915050610570565b507f714a2addab51b8b8bc3959203d8aa34a8be7ef33215f404cd2c9fcfa3397523e81836040516106619291906116e7565b60405180910390a1505050505050565b610679610fad565b73ffffffffffffffffffffffffffffffffffffffff16610697610d48565b73ffffffffffffffffffffffffffffffffffffffff16146106ed576040517f08c379a00000000000000000000000000000000000000000000000000000000081526004016106e49061175c565b60405180910390fd5b600073ffffffffffffffffffffffffffffffffffffffff168173ffffffffffffffffffffffffffffffffffffffff160361072657600080fd5b3373ffffffffffffffffffffffffffffffffffffffff168173ffffffffffffffffffffffffffffffffffffffff160361075e57600080fd5b6000600160008373ffffffffffffffffffffffffffffffffffffffff1673ffffffffffffffffffffffffffffffffffffffff16815260200190815260200160002060006101000a81548160ff02191690831515021790555050565b6107c1610fad565b73ffffffffffffffffffffffffffffffffffffffff166107df610d48565b73ffffffffffffffffffffffffffffffffffffffff1614610835576040517f08c379a000000000000000000000000000000000000000000000000000000000815260040161082c9061175c565b60405180910390fd5b61083f6000610fb5565b565b600160003373ffffffffffffffffffffffffffffffffffffffff1673ffffffffffffffffffffffffffffffffffffffff16815260200190815260200160002060009054906101000a900460ff16806108cb57503373ffffffffffffffffffffffffffffffffffffffff166108b3610d48565b73ffffffffffffffffffffffffffffffffffffffff16145b6108d457600080fd5b6000339050828290508585905014610921576040517f08c379a0000000000000000000000000000000000000000000000000000000008152600401610918906117c8565b60405180910390fd5b60ff858590501115610968576040517f08c379a000000000000000000000000000000000000000000000000000000000815260040161095f906114bc565b60405180910390fd5b60008087905060005b878790508160ff161015610a89578173ffffffffffffffffffffffffffffffffffffffff166323b872dd338a8a8560ff168181106109b2576109b16114dc565b5b90506020020160208101906109c79190611266565b89898660ff168181106109dd576109dc6114dc565b5b905060200201356040518463ffffffff1660e01b8152600401610a029392919061151a565b6020604051808303816000875af1158015610a21573d6000803e3d6000fd5b505050506040513d601f19601f82011682018060405250810190610a45919061157d565b50610a7586868360ff16818110610a5f57610a5e6114dc565b5b905060200201358461107990919063ffffffff16565b508080610a81906115e6565b915050610971565b507f50a5a05e4fcf8317a50616363e195b0a9c76db2e758ebbc24078f086e7f62c97888484604051610abd9392919061151a565b60405180910390a15050505050505050565b600160003373ffffffffffffffffffffffffffffffffffffffff1673ffffffffffffffffffffffffffffffffffffffff16815260200190815260200160002060009054906101000a900460ff1680610b5957503373ffffffffffffffffffffffffffffffffffffffff16610b41610d48565b73ffffffffffffffffffffffffffffffffffffffff16145b610b6257600080fd5b600082826000818110610b7857610b776114dc565b5b9050602002013590506000349050600033905082821015610bce576040517f08c379a0000000000000000000000000000000000000000000000000000000008152600401610bc59061165b565b60405180910390fd5b848490508787905014610c16576040517f08c379a0000000000000000000000000000000000000000000000000000000008152600401610c0d906117c8565b60405180910390fd5b60c8878790501115610c5d576040517f08c379a0000000000000000000000000000000000000000000000000000000008152600401610c54906114bc565b60405180910390fd5b60005b878790508160ff161015610d055787878260ff16818110610c8457610c836114dc565b5b9050602002016020810190610c999190611266565b73ffffffffffffffffffffffffffffffffffffffff166108fc87878460ff16818110610cc857610cc76114dc565b5b905060200201359081150290604051600060405180830381858888f19350505050610cf257600080fd5b8080610cfd906115e6565b915050610c60565b507f714a2addab51b8b8bc3959203d8aa34a8be7ef33215f404cd2c9fcfa3397523e8183604051610d379291906116e7565b60405180910390a150505050505050565b60008060009054906101000a900473ffffffffffffffffffffffffffffffffffffffff16905090565b60016020528060005260406000206000915054906101000a900460ff1681565b610d99610fad565b73ffffffffffffffffffffffffffffffffffffffff16610db7610d48565b73ffffffffffffffffffffffffffffffffffffffff1614610e0d576040517f08c379a0000000000000000000000000000000000000000000000000000000008152600401610e049061175c565b60405180910390fd5b600073ffffffffffffffffffffffffffffffffffffffff168173ffffffffffffffffffffffffffffffffffffffff1603610e4657600080fd5b60018060008373ffffffffffffffffffffffffffffffffffffffff1673ffffffffffffffffffffffffffffffffffffffff16815260200190815260200160002060006101000a81548160ff02191690831515021790555050565b610ea8610fad565b73ffffffffffffffffffffffffffffffffffffffff16610ec6610d48565b73ffffffffffffffffffffffffffffffffffffffff1614610f1c576040517f08c379a0000000000000000000000000000000000000000000000000000000008152600401610f139061175c565b60405180910390fd5b600073ffffffffffffffffffffffffffffffffffffffff168173ffffffffffffffffffffffffffffffffffffffff1603610f8b576040517f08c379a0000000000000000000000000000000000000000000000000000000008152600401610f829061185a565b60405180910390fd5b610f9481610fb5565b50565b60008183610fa5919061187a565b905092915050565b600033905090565b60008060009054906101000a900473ffffffffffffffffffffffffffffffffffffffff169050816000806101000a81548173ffffffffffffffffffffffffffffffffffffffff021916908373ffffffffffffffffffffffffffffffffffffffff1602179055508173ffffffffffffffffffffffffffffffffffffffff168173ffffffffffffffffffffffffffffffffffffffff167f8be0079c531659141344cd1fd0a4f28419497f9722a3daafe3b4186f6b6457e060405160405180910390a35050565b6000818361108791906118d4565b905092915050565b600080fd5b600080fd5b600073ffffffffffffffffffffffffffffffffffffffff82169050919050565b60006110c482611099565b9050919050565b6110d4816110b9565b81146110df57600080fd5b50565b6000813590506110f1816110cb565b92915050565b600080fd5b600080fd5b600080fd5b60008083601f84011261111c5761111b6110f7565b5b8235905067ffffffffffffffff811115611139576111386110fc565b5b60208301915083602082028301111561115557611154611101565b5b9250929050565b6000819050919050565b61116f8161115c565b811461117a57600080fd5b50565b60008135905061118c81611166565b92915050565b600080600080606085870312156111ac576111ab61108f565b5b60006111ba878288016110e2565b945050602085013567ffffffffffffffff8111156111db576111da611094565b5b6111e787828801611106565b935093505060406111fa8782880161117d565b91505092959194509250565b60008060006040848603121561121f5761121e61108f565b5b600084013567ffffffffffffffff81111561123d5761123c611094565b5b61124986828701611106565b9350935050602061125c8682870161117d565b9150509250925092565b60006020828403121561127c5761127b61108f565b5b600061128a848285016110e2565b91505092915050565b60008083601f8401126112a9576112a86110f7565b5b8235905067ffffffffffffffff8111156112c6576112c56110fc565b5b6020830191508360208202830111156112e2576112e1611101565b5b9250929050565b6000806000806000606086880312156113055761130461108f565b5b6000611313888289016110e2565b955050602086013567ffffffffffffffff81111561133457611333611094565b5b61134088828901611106565b9450945050604086013567ffffffffffffffff81111561136357611362611094565b5b61136f88828901611293565b92509250509295509295909350565b600080600080604085870312156113985761139761108f565b5b600085013567ffffffffffffffff8111156113b6576113b5611094565b5b6113c287828801611106565b9450945050602085013567ffffffffffffffff8111156113e5576113e4611094565b5b6113f187828801611293565b925092505092959194509250565b611408816110b9565b82525050565b600060208201905061142360008301846113ff565b92915050565b60008115159050919050565b61143e81611429565b82525050565b60006020820190506114596000830184611435565b92915050565b600082825260208201905092915050565b7f657863656564206d617820616c6c6f7765640000000000000000000000000000600082015250565b60006114a660128361145f565b91506114b182611470565b602082019050919050565b600060208201905081810360008301526114d581611499565b9050919050565b7f4e487b7100000000000000000000000000000000000000000000000000000000600052603260045260246000fd5b6115148161115c565b82525050565b600060608201905061152f60008301866113ff565b61153c60208301856113ff565b611549604083018461150b565b949350505050565b61155a81611429565b811461156557600080fd5b50565b60008151905061157781611551565b92915050565b6000602082840312156115935761159261108f565b5b60006115a184828501611568565b91505092915050565b7f4e487b7100000000000000000000000000000000000000000000000000000000600052601160045260246000fd5b600060ff82169050919050565b60006115f1826115d9565b915060ff8203611604576116036115aa565b5b600182019050919050565b7f496e73756666696369656e742062616c616e6365000000000000000000000000600082015250565b600061164560148361145f565b91506116508261160f565b602082019050919050565b6000602082019050818103600083015261167481611638565b9050919050565b7f6661696c656420746f2073656e64000000000000000000000000000000000000600082015250565b60006116b1600e8361145f565b91506116bc8261167b565b602082019050919050565b600060208201905081810360008301526116e0816116a4565b9050919050565b60006040820190506116fc60008301856113ff565b611709602083018461150b565b9392505050565b7f4f776e61626c653a2063616c6c6572206973206e6f7420746865206f776e6572600082015250565b600061174660208361145f565b915061175182611710565b602082019050919050565b6000602082019050818103600083015261177581611739565b9050919050565b7f696e76616c696420696e70757400000000000000000000000000000000000000600082015250565b60006117b2600d8361145f565b91506117bd8261177c565b602082019050919050565b600060208201905081810360008301526117e1816117a5565b9050919050565b7f4f776e61626c653a206e6577206f776e657220697320746865207a65726f206160008201527f6464726573730000000000000000000000000000000000000000000000000000602082015250565b600061184460268361145f565b915061184f826117e8565b604082019050919050565b6000602082019050818103600083015261187381611837565b9050919050565b60006118858261115c565b91506118908361115c565b9250817fffffffffffffffffffffffffffffffffffffffffffffffffffffffffffffffff04831182151516156118c9576118c86115aa565b5b828202905092915050565b60006118df8261115c565b91506118ea8361115c565b9250827fffffffffffffffffffffffffffffffffffffffffffffffffffffffffffffffff0382111561191f5761191e6115aa565b5b82820190509291505056fea2646970667358221220344a5c3e8fc8419749c08f7eafc1cbc6044d024f4bcc2005f5b3f36b8896056764736f6c634300080d0033",
  "linkReferences": {},
  "deployedLinkReferences": {}
}