{
  "_format": "hh-sol-artifact-1",
  "contractName": "BulkSender",
  "sourceName": "contracts/BulkSender.sol",
  "abi": [
    {
      "inputs": [
        {
          "internalType": "address",
          "name": "tokenAddress",
          "type": "address"
        }
      ],
      "stateMutability": "nonpayable",
      "type": "constructor"
    },
    {
      "anonymous": false,
      "inputs": [
        {
          "indexed": false,
          "internalType": "address",
          "name": "from",
          "type": "address"
        },
        {
          "indexed": false,
          "internalType": "uint256",
          "name": "total",
          "type": "uint256"
        }
      ],
      "name": "LogTokenBulkSent",
      "type": "event"
    },
    {
      "anonymous": false,
      "inputs": [
        {
          "indexed": true,
          "internalType": "address",
          "name": "previousOwner",
          "type": "address"
        },
        {
          "indexed": true,
          "internalType": "address",
          "name": "newOwner",
          "type": "address"
        }
      ],
      "name": "OwnershipTransferred",
      "type": "event"
    },
    {
      "inputs": [
        {
          "internalType": "address[]",
          "name": "_to",
          "type": "address[]"
        },
        {
          "internalType": "uint256[]",
          "name": "_value",
          "type": "uint256[]"
        }
      ],
      "name": "AirdropDifferentValue",
      "outputs": [],
      "stateMutability": "nonpayable",
      "type": "function"
    },
    {
      "inputs": [
        {
          "internalType": "address[]",
          "name": "_to",
          "type": "address[]"
        },
        {
          "internalType": "uint256",
          "name": "_value",
          "type": "uint256"
        }
      ],
      "name": "AirdropSameValue",
      "outputs": [],
      "stateMutability": "nonpayable",
      "type": "function"
    },
    {
      "inputs": [
        {
          "internalType": "address",
          "name": "_toAdd",
          "type": "address"
        }
      ],
      "name": "addAuthorized",
      "outputs": [],
      "stateMutability": "nonpayable",
      "type": "function"
    },
    {
      "inputs": [
        {
          "internalType": "address",
          "name": "",
          "type": "address"
        }
      ],
      "name": "authorized",
      "outputs": [
        {
          "internalType": "bool",
          "name": "",
          "type": "bool"
        }
      ],
      "stateMutability": "view",
      "type": "function"
    },
    {
      "inputs": [],
      "name": "owner",
      "outputs": [
        {
          "internalType": "address",
          "name": "",
          "type": "address"
        }
      ],
      "stateMutability": "view",
      "type": "function"
    },
    {
      "inputs": [
        {
          "internalType": "address",
          "name": "_toRemove",
          "type": "address"
        }
      ],
      "name": "removeAuthorized",
      "outputs": [],
      "stateMutability": "nonpayable",
      "type": "function"
    },
    {
      "inputs": [],
      "name": "renounceOwnership",
      "outputs": [],
      "stateMutability": "nonpayable",
      "type": "function"
    },
    {
      "inputs": [
        {
          "internalType": "address",
          "name": "newOwner",
          "type": "address"
        }
      ],
      "name": "transferOwnership",
      "outputs": [],
      "stateMutability": "nonpayable",
      "type": "function"
    }
  ],
  "bytecode": "0x60806040523480156200001157600080fd5b506040516200182d3803806200182d8339818101604052810190620000379190620001d5565b620000576200004b6200009f60201b60201c565b620000a760201b60201c565b80600260006101000a81548173ffffffffffffffffffffffffffffffffffffffff021916908373ffffffffffffffffffffffffffffffffffffffff1602179055505062000207565b600033905090565b60008060009054906101000a900473ffffffffffffffffffffffffffffffffffffffff169050816000806101000a81548173ffffffffffffffffffffffffffffffffffffffff021916908373ffffffffffffffffffffffffffffffffffffffff1602179055508173ffffffffffffffffffffffffffffffffffffffff168173ffffffffffffffffffffffffffffffffffffffff167f8be0079c531659141344cd1fd0a4f28419497f9722a3daafe3b4186f6b6457e060405160405180910390a35050565b600080fd5b600073ffffffffffffffffffffffffffffffffffffffff82169050919050565b60006200019d8262000170565b9050919050565b620001af8162000190565b8114620001bb57600080fd5b50565b600081519050620001cf81620001a4565b92915050565b600060208284031215620001ee57620001ed6200016b565b5b6000620001fe84828501620001be565b91505092915050565b61161680620002176000396000f3fe608060405234801561001057600080fd5b50600436106100885760003560e01c80638da5cb5b1161005b5780638da5cb5b146100eb578063b918161114610109578063cf1c316a14610139578063f2fde38b1461015557610088565b80631eaa45a31461008d578063485d7d94146100a95780634b51d560146100c5578063715018a6146100e1575b600080fd5b6100a760048036038101906100a29190610efa565b610171565b005b6100c360048036038101906100be9190610fb8565b610505565b005b6100df60048036038101906100da919061103b565b61064d565b005b6100e9610a86565b005b6100f3610b0e565b60405161010091906110cb565b60405180910390f35b610123600480360381019061011e9190610fb8565b610b37565b6040516101309190611101565b60405180910390f35b610153600480360381019061014e9190610fb8565b610b57565b005b61016f600480360381019061016a9190610fb8565b610c66565b005b600160003373ffffffffffffffffffffffffffffffffffffffff1673ffffffffffffffffffffffffffffffffffffffff16815260200190815260200160002060009054906101000a900460ff16806101fb57503373ffffffffffffffffffffffffffffffffffffffff166101e3610b0e565b73ffffffffffffffffffffffffffffffffffffffff16145b61023a576040517f08c379a00000000000000000000000000000000000000000000000000000000081526004016102319061119f565b60405180910390fd5b600033905060c8848490501115610286576040517f08c379a000000000000000000000000000000000000000000000000000000000815260040161027d9061120b565b60405180910390fd5b600061029e8386869050610d5d90919063ffffffff16565b9050600260009054906101000a900473ffffffffffffffffffffffffffffffffffffffff1673ffffffffffffffffffffffffffffffffffffffff166340c10f1930600260009054906101000a900473ffffffffffffffffffffffffffffffffffffffff1673ffffffffffffffffffffffffffffffffffffffff166370a08231306040518263ffffffff1660e01b815260040161033a91906110cb565b602060405180830381865afa158015610357573d6000803e3d6000fd5b505050506040513d601f19601f8201168201806040525081019061037b9190611240565b84610386919061129c565b6040518363ffffffff1660e01b81526004016103a39291906112df565b600060405180830381600087803b1580156103bd57600080fd5b505af11580156103d1573d6000803e3d6000fd5b5050505060005b858590508160ff1610156104c457600260009054906101000a900473ffffffffffffffffffffffffffffffffffffffff1673ffffffffffffffffffffffffffffffffffffffff1663a9059cbb87878460ff1681811061043a57610439611308565b5b905060200201602081019061044f9190610fb8565b866040518363ffffffff1660e01b815260040161046d9291906112df565b6020604051808303816000875af115801561048c573d6000803e3d6000fd5b505050506040513d601f19601f820116820180604052508101906104b09190611363565b5080806104bc9061139d565b9150506103d8565b507fe4e3577249108daaa0a07e6d9aabc5fef8e89ec09da3f9dccfe7ef215e4efc1282826040516104f69291906112df565b60405180910390a15050505050565b61050d610d73565b73ffffffffffffffffffffffffffffffffffffffff1661052b610b0e565b73ffffffffffffffffffffffffffffffffffffffff1614610581576040517f08c379a000000000000000000000000000000000000000000000000000000000815260040161057890611412565b60405180910390fd5b600073ffffffffffffffffffffffffffffffffffffffff168173ffffffffffffffffffffffffffffffffffffffff16036105ba57600080fd5b3373ffffffffffffffffffffffffffffffffffffffff168173ffffffffffffffffffffffffffffffffffffffff16036105f257600080fd5b6000600160008373ffffffffffffffffffffffffffffffffffffffff1673ffffffffffffffffffffffffffffffffffffffff16815260200190815260200160002060006101000a81548160ff02191690831515021790555050565b600160003373ffffffffffffffffffffffffffffffffffffffff1673ffffffffffffffffffffffffffffffffffffffff16815260200190815260200160002060009054906101000a900460ff16806106d757503373ffffffffffffffffffffffffffffffffffffffff166106bf610b0e565b73ffffffffffffffffffffffffffffffffffffffff16145b610716576040517f08c379a000000000000000000000000000000000000000000000000000000000815260040161070d9061119f565b60405180910390fd5b6000339050828290508585905014610763576040517f08c379a000000000000000000000000000000000000000000000000000000000815260040161075a9061147e565b60405180910390fd5b60c88585905011156107aa576040517f08c379a00000000000000000000000000000000000000000000000000000000081526004016107a19061120b565b60405180910390fd5b600080600090505b868690508160ff161015610803576107ef85858360ff168181106107d9576107d8611308565b5b9050602002013583610d7b90919063ffffffff16565b5080806107fb9061139d565b9150506107b2565b50600260009054906101000a900473ffffffffffffffffffffffffffffffffffffffff1673ffffffffffffffffffffffffffffffffffffffff166340c10f1930600260009054906101000a900473ffffffffffffffffffffffffffffffffffffffff1673ffffffffffffffffffffffffffffffffffffffff166370a08231306040518263ffffffff1660e01b815260040161089e91906110cb565b602060405180830381865afa1580156108bb573d6000803e3d6000fd5b505050506040513d601f19601f820116820180604052508101906108df9190611240565b846108ea919061129c565b6040518363ffffffff1660e01b81526004016109079291906112df565b600060405180830381600087803b15801561092157600080fd5b505af1158015610935573d6000803e3d6000fd5b5050505060005b868690508160ff161015610a4457600260009054906101000a900473ffffffffffffffffffffffffffffffffffffffff1673ffffffffffffffffffffffffffffffffffffffff1663a9059cbb88888460ff1681811061099e5761099d611308565b5b90506020020160208101906109b39190610fb8565b87878560ff168181106109c9576109c8611308565b5b905060200201356040518363ffffffff1660e01b81526004016109ed9291906112df565b6020604051808303816000875af1158015610a0c573d6000803e3d6000fd5b505050506040513d601f19601f82011682018060405250810190610a309190611363565b508080610a3c9061139d565b91505061093c565b507fe4e3577249108daaa0a07e6d9aabc5fef8e89ec09da3f9dccfe7ef215e4efc128282604051610a769291906112df565b60405180910390a1505050505050565b610a8e610d73565b73ffffffffffffffffffffffffffffffffffffffff16610aac610b0e565b73ffffffffffffffffffffffffffffffffffffffff1614610b02576040517f08c379a0000000000000000000000000000000000000000000000000000000008152600401610af990611412565b60405180910390fd5b610b0c6000610d91565b565b60008060009054906101000a900473ffffffffffffffffffffffffffffffffffffffff16905090565b60016020528060005260406000206000915054906101000a900460ff1681565b610b5f610d73565b73ffffffffffffffffffffffffffffffffffffffff16610b7d610b0e565b73ffffffffffffffffffffffffffffffffffffffff1614610bd3576040517f08c379a0000000000000000000000000000000000000000000000000000000008152600401610bca90611412565b60405180910390fd5b600073ffffffffffffffffffffffffffffffffffffffff168173ffffffffffffffffffffffffffffffffffffffff1603610c0c57600080fd5b60018060008373ffffffffffffffffffffffffffffffffffffffff1673ffffffffffffffffffffffffffffffffffffffff16815260200190815260200160002060006101000a81548160ff02191690831515021790555050565b610c6e610d73565b73ffffffffffffffffffffffffffffffffffffffff16610c8c610b0e565b73ffffffffffffffffffffffffffffffffffffffff1614610ce2576040517f08c379a0000000000000000000000000000000000000000000000000000000008152600401610cd990611412565b60405180910390fd5b600073ffffffffffffffffffffffffffffffffffffffff168173ffffffffffffffffffffffffffffffffffffffff1603610d51576040517f08c379a0000000000000000000000000000000000000000000000000000000008152600401610d4890611510565b60405180910390fd5b610d5a81610d91565b50565b60008183610d6b9190611530565b905092915050565b600033905090565b60008183610d89919061158a565b905092915050565b60008060009054906101000a900473ffffffffffffffffffffffffffffffffffffffff169050816000806101000a81548173ffffffffffffffffffffffffffffffffffffffff021916908373ffffffffffffffffffffffffffffffffffffffff1602179055508173ffffffffffffffffffffffffffffffffffffffff168173ffffffffffffffffffffffffffffffffffffffff167f8be0079c531659141344cd1fd0a4f28419497f9722a3daafe3b4186f6b6457e060405160405180910390a35050565b600080fd5b600080fd5b600080fd5b600080fd5b600080fd5b60008083601f840112610e8457610e83610e5f565b5b8235905067ffffffffffffffff811115610ea157610ea0610e64565b5b602083019150836020820283011115610ebd57610ebc610e69565b5b9250929050565b6000819050919050565b610ed781610ec4565b8114610ee257600080fd5b50565b600081359050610ef481610ece565b92915050565b600080600060408486031215610f1357610f12610e55565b5b600084013567ffffffffffffffff811115610f3157610f30610e5a565b5b610f3d86828701610e6e565b93509350506020610f5086828701610ee5565b9150509250925092565b600073ffffffffffffffffffffffffffffffffffffffff82169050919050565b6000610f8582610f5a565b9050919050565b610f9581610f7a565b8114610fa057600080fd5b50565b600081359050610fb281610f8c565b92915050565b600060208284031215610fce57610fcd610e55565b5b6000610fdc84828501610fa3565b91505092915050565b60008083601f840112610ffb57610ffa610e5f565b5b8235905067ffffffffffffffff81111561101857611017610e64565b5b60208301915083602082028301111561103457611033610e69565b5b9250929050565b6000806000806040858703121561105557611054610e55565b5b600085013567ffffffffffffffff81111561107357611072610e5a565b5b61107f87828801610e6e565b9450945050602085013567ffffffffffffffff8111156110a2576110a1610e5a565b5b6110ae87828801610fe5565b925092505092959194509250565b6110c581610f7a565b82525050565b60006020820190506110e060008301846110bc565b92915050565b60008115159050919050565b6110fb816110e6565b82525050565b600060208201905061111660008301846110f2565b92915050565b600082825260208201905092915050565b7f4f6e6c7920417574686f72697a65642041646d696e732061726520616c6c6f7760008201527f656420746f206163636573732074686973207365727669636500000000000000602082015250565b600061118960398361111c565b91506111948261112d565b604082019050919050565b600060208201905081810360008301526111b88161117c565b9050919050565b7f657863656564206d617820616c6c6f7765640000000000000000000000000000600082015250565b60006111f560128361111c565b9150611200826111bf565b602082019050919050565b60006020820190508181036000830152611224816111e8565b9050919050565b60008151905061123a81610ece565b92915050565b60006020828403121561125657611255610e55565b5b60006112648482850161122b565b91505092915050565b7f4e487b7100000000000000000000000000000000000000000000000000000000600052601160045260246000fd5b60006112a782610ec4565b91506112b283610ec4565b9250828210156112c5576112c461126d565b5b828203905092915050565b6112d981610ec4565b82525050565b60006040820190506112f460008301856110bc565b61130160208301846112d0565b9392505050565b7f4e487b7100000000000000000000000000000000000000000000000000000000600052603260045260246000fd5b611340816110e6565b811461134b57600080fd5b50565b60008151905061135d81611337565b92915050565b60006020828403121561137957611378610e55565b5b60006113878482850161134e565b91505092915050565b600060ff82169050919050565b60006113a882611390565b915060ff82036113bb576113ba61126d565b5b600182019050919050565b7f4f776e61626c653a2063616c6c6572206973206e6f7420746865206f776e6572600082015250565b60006113fc60208361111c565b9150611407826113c6565b602082019050919050565b6000602082019050818103600083015261142b816113ef565b9050919050565b7f696e76616c696420696e70757400000000000000000000000000000000000000600082015250565b6000611468600d8361111c565b915061147382611432565b602082019050919050565b600060208201905081810360008301526114978161145b565b9050919050565b7f4f776e61626c653a206e6577206f776e657220697320746865207a65726f206160008201527f6464726573730000000000000000000000000000000000000000000000000000602082015250565b60006114fa60268361111c565b91506115058261149e565b604082019050919050565b60006020820190508181036000830152611529816114ed565b9050919050565b600061153b82610ec4565b915061154683610ec4565b9250817fffffffffffffffffffffffffffffffffffffffffffffffffffffffffffffffff048311821515161561157f5761157e61126d565b5b828202905092915050565b600061159582610ec4565b91506115a083610ec4565b9250827fffffffffffffffffffffffffffffffffffffffffffffffffffffffffffffffff038211156115d5576115d461126d565b5b82820190509291505056fea2646970667358221220ae9b2f09f93de076c46b8528af10aa01b492c5e4f81d29586616cf8c1e4ab9b764736f6c634300080d0033",
  "linkReferences": {},
  "deployedLinkReferences": {}
}