{
  "contracts/BulkSender.sol": {
    "BulkSender": {
      "abi": [
        {
          "inputs": [
            {
              "internalType": "address",
              "name": "tokenAddress",
              "type": "address"
            }
          ],
          "stateMutability": "nonpayable",
          "type": "constructor"
        },
        {
          "anonymous": false,
          "inputs": [
            {
              "indexed": false,
              "internalType": "address",
              "name": "from",
              "type": "address"
            },
            {
              "indexed": false,
              "internalType": "uint256",
              "name": "total",
              "type": "uint256"
            }
          ],
          "name": "LogTokenBulkSent",
          "type": "event"
        },
        {
          "anonymous": false,
          "inputs": [
            {
              "indexed": true,
              "internalType": "address",
              "name": "previousOwner",
              "type": "address"
            },
            {
              "indexed": true,
              "internalType": "address",
              "name": "newOwner",
              "type": "address"
            }
          ],
          "name": "OwnershipTransferred",
          "type": "event"
        },
        {
          "inputs": [
            {
              "internalType": "address[]",
              "name": "_to",
              "type": "address[]"
            },
            {
              "internalType": "uint256[]",
              "name": "_value",
              "type": "uint256[]"
            }
          ],
          "name": "AirdropDifferentValue",
          "outputs": [],
          "stateMutability": "nonpayable",
          "type": "function"
        },
        {
          "inputs": [
            {
              "internalType": "address[]",
              "name": "_to",
              "type": "address[]"
            },
            {
              "internalType": "uint256",
              "name": "_value",
              "type": "uint256"
            }
          ],
          "name": "AirdropSameValue",
          "outputs": [],
          "stateMutability": "nonpayable",
          "type": "function"
        },
        {
          "inputs": [
            {
              "internalType": "address",
              "name": "_toAdd",
              "type": "address"
            }
          ],
          "name": "addAuthorized",
          "outputs": [],
          "stateMutability": "nonpayable",
          "type": "function"
        },
        {
          "inputs": [
            {
              "internalType": "address",
              "name": "",
              "type": "address"
            }
          ],
          "name": "authorized",
          "outputs": [
            {
              "internalType": "bool",
              "name": "",
              "type": "bool"
            }
          ],
          "stateMutability": "view",
          "type": "function"
        },
        {
          "inputs": [],
          "name": "owner",
          "outputs": [
            {
              "internalType": "address",
              "name": "",
              "type": "address"
            }
          ],
          "stateMutability": "view",
          "type": "function"
        },
        {
          "inputs": [
            {
              "internalType": "address",
              "name": "_toRemove",
              "type": "address"
            }
          ],
          "name": "removeAuthorized",
          "outputs": [],
          "stateMutability": "nonpayable",
          "type": "function"
        },
        {
          "inputs": [],
          "name": "renounceOwnership",
          "outputs": [],
          "stateMutability": "nonpayable",
          "type": "function"
        },
        {
          "inputs": [
            {
              "internalType": "address",
              "name": "newOwner",
              "type": "address"
            }
          ],
          "name": "transferOwnership",
          "outputs": [],
          "stateMutability": "nonpayable",
          "type": "function"
        }
      ],
      "devdoc": {
        "kind": "dev",
        "methods": {
          "owner()": {
            "details": "Returns the address of the current owner."
          },
          "renounceOwnership()": {
            "details": "Leaves the contract without owner. It will not be possible to call `onlyOwner` functions anymore. Can only be called by the current owner. NOTE: Renouncing ownership will leave the contract without an owner, thereby removing any functionality that is only available to the owner."
          },
          "transferOwnership(address)": {
            "details": "Transfers ownership of the contract to a new account (`newOwner`). Can only be called by the current owner."
          }
        },
        "version": 1
      },
      "evm": {
        "bytecode": {
          "linkReferences": {},
          "object": "60806040523480156200001157600080fd5b50604051620016ac380380620016ac8339818101604052810190620000379190620001d5565b620000576200004b6200009f60201b60201c565b620000a760201b60201c565b80600260006101000a81548173ffffffffffffffffffffffffffffffffffffffff021916908373ffffffffffffffffffffffffffffffffffffffff1602179055505062000207565b600033905090565b60008060009054906101000a900473ffffffffffffffffffffffffffffffffffffffff169050816000806101000a81548173ffffffffffffffffffffffffffffffffffffffff021916908373ffffffffffffffffffffffffffffffffffffffff1602179055508173ffffffffffffffffffffffffffffffffffffffff168173ffffffffffffffffffffffffffffffffffffffff167f8be0079c531659141344cd1fd0a4f28419497f9722a3daafe3b4186f6b6457e060405160405180910390a35050565b600080fd5b600073ffffffffffffffffffffffffffffffffffffffff82169050919050565b60006200019d8262000170565b9050919050565b620001af8162000190565b8114620001bb57600080fd5b50565b600081519050620001cf81620001a4565b92915050565b600060208284031215620001ee57620001ed6200016b565b5b6000620001fe84828501620001be565b91505092915050565b61149580620002176000396000f3fe608060405234801561001057600080fd5b50600436106100885760003560e01c80638da5cb5b1161005b5780638da5cb5b146100eb578063b918161114610109578063cf1c316a14610139578063f2fde38b1461015557610088565b80631eaa45a31461008d578063485d7d94146100a95780634b51d560146100c5578063715018a6146100e1575b600080fd5b6100a760048036038101906100a29190610d26565b610171565b005b6100c360048036038101906100be9190610de4565b61041b565b005b6100df60048036038101906100da9190610e67565b610563565b005b6100e96108b2565b005b6100f361093a565b6040516101009190610ef7565b60405180910390f35b610123600480360381019061011e9190610de4565b610963565b6040516101309190610f2d565b60405180910390f35b610153600480360381019061014e9190610de4565b610983565b005b61016f600480360381019061016a9190610de4565b610a92565b005b600160003373ffffffffffffffffffffffffffffffffffffffff1673ffffffffffffffffffffffffffffffffffffffff16815260200190815260200160002060009054906101000a900460ff16806101fb57503373ffffffffffffffffffffffffffffffffffffffff166101e361093a565b73ffffffffffffffffffffffffffffffffffffffff16145b61023a576040517f08c379a000000000000000000000000000000000000000000000000000000000815260040161023190610fcb565b60405180910390fd5b600033905060c8848490501115610286576040517f08c379a000000000000000000000000000000000000000000000000000000000815260040161027d90611037565b60405180910390fd5b600061029e8386869050610b8990919063ffffffff16565b90506000479050818110156102e8576040517f08c379a00000000000000000000000000000000000000000000000000000000081526004016102df906110c9565b60405180910390fd5b60005b868690508160ff1610156103d957600260009054906101000a900473ffffffffffffffffffffffffffffffffffffffff1673ffffffffffffffffffffffffffffffffffffffff166323b872dd8589898560ff1681811061034e5761034d6110e9565b5b90506020020160208101906103639190610de4565b886040518463ffffffff1660e01b815260040161038293929190611127565b6020604051808303816000875af11580156103a1573d6000803e3d6000fd5b505050506040513d601f19601f820116820180604052508101906103c5919061118a565b5080806103d1906111f3565b9150506102eb565b507fe4e3577249108daaa0a07e6d9aabc5fef8e89ec09da3f9dccfe7ef215e4efc12838360405161040b92919061121c565b60405180910390a1505050505050565b610423610b9f565b73ffffffffffffffffffffffffffffffffffffffff1661044161093a565b73ffffffffffffffffffffffffffffffffffffffff1614610497576040517f08c379a000000000000000000000000000000000000000000000000000000000815260040161048e90611291565b60405180910390fd5b600073ffffffffffffffffffffffffffffffffffffffff168173ffffffffffffffffffffffffffffffffffffffff16036104d057600080fd5b3373ffffffffffffffffffffffffffffffffffffffff168173ffffffffffffffffffffffffffffffffffffffff160361050857600080fd5b6000600160008373ffffffffffffffffffffffffffffffffffffffff1673ffffffffffffffffffffffffffffffffffffffff16815260200190815260200160002060006101000a81548160ff02191690831515021790555050565b600160003373ffffffffffffffffffffffffffffffffffffffff1673ffffffffffffffffffffffffffffffffffffffff16815260200190815260200160002060009054906101000a900460ff16806105ed57503373ffffffffffffffffffffffffffffffffffffffff166105d561093a565b73ffffffffffffffffffffffffffffffffffffffff16145b61062c576040517f08c379a000000000000000000000000000000000000000000000000000000000815260040161062390610fcb565b60405180910390fd5b6000339050828290508585905014610679576040517f08c379a0000000000000000000000000000000000000000000000000000000008152600401610670906112fd565b60405180910390fd5b60c88585905011156106c0576040517f08c379a00000000000000000000000000000000000000000000000000000000081526004016106b790611037565b60405180910390fd5b6000479050600080600090505b878790508160ff16101561071e5761070a86868360ff168181106106f4576106f36110e9565b5b9050602002013583610ba790919063ffffffff16565b508080610716906111f3565b9150506106cd565b5080821015610762576040517f08c379a0000000000000000000000000000000000000000000000000000000008152600401610759906110c9565b60405180910390fd5b60005b878790508160ff16101561086f57600260009054906101000a900473ffffffffffffffffffffffffffffffffffffffff1673ffffffffffffffffffffffffffffffffffffffff166323b872dd338a8a8560ff168181106107c8576107c76110e9565b5b90506020020160208101906107dd9190610de4565b89898660ff168181106107f3576107f26110e9565b5b905060200201356040518463ffffffff1660e01b815260040161081893929190611127565b6020604051808303816000875af1158015610837573d6000803e3d6000fd5b505050506040513d601f19601f8201168201806040525081019061085b919061118a565b508080610867906111f3565b915050610765565b507fe4e3577249108daaa0a07e6d9aabc5fef8e89ec09da3f9dccfe7ef215e4efc1283826040516108a192919061121c565b60405180910390a150505050505050565b6108ba610b9f565b73ffffffffffffffffffffffffffffffffffffffff166108d861093a565b73ffffffffffffffffffffffffffffffffffffffff161461092e576040517f08c379a000000000000000000000000000000000000000000000000000000000815260040161092590611291565b60405180910390fd5b6109386000610bbd565b565b60008060009054906101000a900473ffffffffffffffffffffffffffffffffffffffff16905090565b60016020528060005260406000206000915054906101000a900460ff1681565b61098b610b9f565b73ffffffffffffffffffffffffffffffffffffffff166109a961093a565b73ffffffffffffffffffffffffffffffffffffffff16146109ff576040517f08c379a00000000000000000000000000000000000000000000000000000000081526004016109f690611291565b60405180910390fd5b600073ffffffffffffffffffffffffffffffffffffffff168173ffffffffffffffffffffffffffffffffffffffff1603610a3857600080fd5b60018060008373ffffffffffffffffffffffffffffffffffffffff1673ffffffffffffffffffffffffffffffffffffffff16815260200190815260200160002060006101000a81548160ff02191690831515021790555050565b610a9a610b9f565b73ffffffffffffffffffffffffffffffffffffffff16610ab861093a565b73ffffffffffffffffffffffffffffffffffffffff1614610b0e576040517f08c379a0000000000000000000000000000000000000000000000000000000008152600401610b0590611291565b60405180910390fd5b600073ffffffffffffffffffffffffffffffffffffffff168173ffffffffffffffffffffffffffffffffffffffff1603610b7d576040517f08c379a0000000000000000000000000000000000000000000000000000000008152600401610b749061138f565b60405180910390fd5b610b8681610bbd565b50565b60008183610b9791906113af565b905092915050565b600033905090565b60008183610bb59190611409565b905092915050565b60008060009054906101000a900473ffffffffffffffffffffffffffffffffffffffff169050816000806101000a81548173ffffffffffffffffffffffffffffffffffffffff021916908373ffffffffffffffffffffffffffffffffffffffff1602179055508173ffffffffffffffffffffffffffffffffffffffff168173ffffffffffffffffffffffffffffffffffffffff167f8be0079c531659141344cd1fd0a4f28419497f9722a3daafe3b4186f6b6457e060405160405180910390a35050565b600080fd5b600080fd5b600080fd5b600080fd5b600080fd5b60008083601f840112610cb057610caf610c8b565b5b8235905067ffffffffffffffff811115610ccd57610ccc610c90565b5b602083019150836020820283011115610ce957610ce8610c95565b5b9250929050565b6000819050919050565b610d0381610cf0565b8114610d0e57600080fd5b50565b600081359050610d2081610cfa565b92915050565b600080600060408486031215610d3f57610d3e610c81565b5b600084013567ffffffffffffffff811115610d5d57610d5c610c86565b5b610d6986828701610c9a565b93509350506020610d7c86828701610d11565b9150509250925092565b600073ffffffffffffffffffffffffffffffffffffffff82169050919050565b6000610db182610d86565b9050919050565b610dc181610da6565b8114610dcc57600080fd5b50565b600081359050610dde81610db8565b92915050565b600060208284031215610dfa57610df9610c81565b5b6000610e0884828501610dcf565b91505092915050565b60008083601f840112610e2757610e26610c8b565b5b8235905067ffffffffffffffff811115610e4457610e43610c90565b5b602083019150836020820283011115610e6057610e5f610c95565b5b9250929050565b60008060008060408587031215610e8157610e80610c81565b5b600085013567ffffffffffffffff811115610e9f57610e9e610c86565b5b610eab87828801610c9a565b9450945050602085013567ffffffffffffffff811115610ece57610ecd610c86565b5b610eda87828801610e11565b925092505092959194509250565b610ef181610da6565b82525050565b6000602082019050610f0c6000830184610ee8565b92915050565b60008115159050919050565b610f2781610f12565b82525050565b6000602082019050610f426000830184610f1e565b92915050565b600082825260208201905092915050565b7f4f6e6c7920417574686f72697a65642041646d696e732061726520616c6c6f7760008201527f656420746f206163636573732074686973207365727669636500000000000000602082015250565b6000610fb5603983610f48565b9150610fc082610f59565b604082019050919050565b60006020820190508181036000830152610fe481610fa8565b9050919050565b7f657863656564206d617820616c6c6f7765640000000000000000000000000000600082015250565b6000611021601283610f48565b915061102c82610feb565b602082019050919050565b6000602082019050818103600083015261105081611014565b9050919050565b7f596f75722062616c616e6365206973206c6f776572207468616e20746865206160008201527f6d6f756e74206f6620746f6b656e7320796f752077616e7420746f2073656c6c602082015250565b60006110b3604083610f48565b91506110be82611057565b604082019050919050565b600060208201905081810360008301526110e2816110a6565b9050919050565b7f4e487b7100000000000000000000000000000000000000000000000000000000600052603260045260246000fd5b61112181610cf0565b82525050565b600060608201905061113c6000830186610ee8565b6111496020830185610ee8565b6111566040830184611118565b949350505050565b61116781610f12565b811461117257600080fd5b50565b6000815190506111848161115e565b92915050565b6000602082840312156111a05761119f610c81565b5b60006111ae84828501611175565b91505092915050565b7f4e487b7100000000000000000000000000000000000000000000000000000000600052601160045260246000fd5b600060ff82169050919050565b60006111fe826111e6565b915060ff8203611211576112106111b7565b5b600182019050919050565b60006040820190506112316000830185610ee8565b61123e6020830184611118565b9392505050565b7f4f776e61626c653a2063616c6c6572206973206e6f7420746865206f776e6572600082015250565b600061127b602083610f48565b915061128682611245565b602082019050919050565b600060208201905081810360008301526112aa8161126e565b9050919050565b7f696e76616c696420696e70757400000000000000000000000000000000000000600082015250565b60006112e7600d83610f48565b91506112f2826112b1565b602082019050919050565b60006020820190508181036000830152611316816112da565b9050919050565b7f4f776e61626c653a206e6577206f776e657220697320746865207a65726f206160008201527f6464726573730000000000000000000000000000000000000000000000000000602082015250565b6000611379602683610f48565b91506113848261131d565b604082019050919050565b600060208201905081810360008301526113a88161136c565b9050919050565b60006113ba82610cf0565b91506113c583610cf0565b9250817fffffffffffffffffffffffffffffffffffffffffffffffffffffffffffffffff04831182151516156113fe576113fd6111b7565b5b828202905092915050565b600061141482610cf0565b915061141f83610cf0565b9250827fffffffffffffffffffffffffffffffffffffffffffffffffffffffffffffffff03821115611454576114536111b7565b5b82820190509291505056fea2646970667358221220ed23705058b2a7c864d39318798b61aabbc36cd26380239028370c2baef3003164736f6c634300080d0033",
          "opcodes": "PUSH1 0x80 PUSH1 0x40 MSTORE CALLVALUE DUP1 ISZERO PUSH3 0x11 JUMPI PUSH1 0x0 DUP1 REVERT JUMPDEST POP PUSH1 0x40 MLOAD PUSH3 0x16AC CODESIZE SUB DUP1 PUSH3 0x16AC DUP4 CODECOPY DUP2 DUP2 ADD PUSH1 0x40 MSTORE DUP2 ADD SWAP1 PUSH3 0x37 SWAP2 SWAP1 PUSH3 0x1D5 JUMP JUMPDEST PUSH3 0x57 PUSH3 0x4B PUSH3 0x9F PUSH1 0x20 SHL PUSH1 0x20 SHR JUMP JUMPDEST PUSH3 0xA7 PUSH1 0x20 SHL PUSH1 0x20 SHR JUMP JUMPDEST DUP1 PUSH1 0x2 PUSH1 0x0 PUSH2 0x100 EXP DUP2 SLOAD DUP2 PUSH20 0xFFFFFFFFFFFFFFFFFFFFFFFFFFFFFFFFFFFFFFFF MUL NOT AND SWAP1 DUP4 PUSH20 0xFFFFFFFFFFFFFFFFFFFFFFFFFFFFFFFFFFFFFFFF AND MUL OR SWAP1 SSTORE POP POP PUSH3 0x207 JUMP JUMPDEST PUSH1 0x0 CALLER SWAP1 POP SWAP1 JUMP JUMPDEST PUSH1 0x0 DUP1 PUSH1 0x0 SWAP1 SLOAD SWAP1 PUSH2 0x100 EXP SWAP1 DIV PUSH20 0xFFFFFFFFFFFFFFFFFFFFFFFFFFFFFFFFFFFFFFFF AND SWAP1 POP DUP2 PUSH1 0x0 DUP1 PUSH2 0x100 EXP DUP2 SLOAD DUP2 PUSH20 0xFFFFFFFFFFFFFFFFFFFFFFFFFFFFFFFFFFFFFFFF MUL NOT AND SWAP1 DUP4 PUSH20 0xFFFFFFFFFFFFFFFFFFFFFFFFFFFFFFFFFFFFFFFF AND MUL OR SWAP1 SSTORE POP DUP2 PUSH20 0xFFFFFFFFFFFFFFFFFFFFFFFFFFFFFFFFFFFFFFFF AND DUP2 PUSH20 0xFFFFFFFFFFFFFFFFFFFFFFFFFFFFFFFFFFFFFFFF AND PUSH32 0x8BE0079C531659141344CD1FD0A4F28419497F9722A3DAAFE3B4186F6B6457E0 PUSH1 0x40 MLOAD PUSH1 0x40 MLOAD DUP1 SWAP2 SUB SWAP1 LOG3 POP POP JUMP JUMPDEST PUSH1 0x0 DUP1 REVERT JUMPDEST PUSH1 0x0 PUSH20 0xFFFFFFFFFFFFFFFFFFFFFFFFFFFFFFFFFFFFFFFF DUP3 AND SWAP1 POP SWAP2 SWAP1 POP JUMP JUMPDEST PUSH1 0x0 PUSH3 0x19D DUP3 PUSH3 0x170 JUMP JUMPDEST SWAP1 POP SWAP2 SWAP1 POP JUMP JUMPDEST PUSH3 0x1AF DUP2 PUSH3 0x190 JUMP JUMPDEST DUP2 EQ PUSH3 0x1BB JUMPI PUSH1 0x0 DUP1 REVERT JUMPDEST POP JUMP JUMPDEST PUSH1 0x0 DUP2 MLOAD SWAP1 POP PUSH3 0x1CF DUP2 PUSH3 0x1A4 JUMP JUMPDEST SWAP3 SWAP2 POP POP JUMP JUMPDEST PUSH1 0x0 PUSH1 0x20 DUP3 DUP5 SUB SLT ISZERO PUSH3 0x1EE JUMPI PUSH3 0x1ED PUSH3 0x16B JUMP JUMPDEST JUMPDEST PUSH1 0x0 PUSH3 0x1FE DUP5 DUP3 DUP6 ADD PUSH3 0x1BE JUMP JUMPDEST SWAP2 POP POP SWAP3 SWAP2 POP POP JUMP JUMPDEST PUSH2 0x1495 DUP1 PUSH3 0x217 PUSH1 0x0 CODECOPY PUSH1 0x0 RETURN INVALID PUSH1 0x80 PUSH1 0x40 MSTORE CALLVALUE DUP1 ISZERO PUSH2 0x10 JUMPI PUSH1 0x0 DUP1 REVERT JUMPDEST POP PUSH1 0x4 CALLDATASIZE LT PUSH2 0x88 JUMPI PUSH1 0x0 CALLDATALOAD PUSH1 0xE0 SHR DUP1 PUSH4 0x8DA5CB5B GT PUSH2 0x5B JUMPI DUP1 PUSH4 0x8DA5CB5B EQ PUSH2 0xEB JUMPI DUP1 PUSH4 0xB9181611 EQ PUSH2 0x109 JUMPI DUP1 PUSH4 0xCF1C316A EQ PUSH2 0x139 JUMPI DUP1 PUSH4 0xF2FDE38B EQ PUSH2 0x155 JUMPI PUSH2 0x88 JUMP JUMPDEST DUP1 PUSH4 0x1EAA45A3 EQ PUSH2 0x8D JUMPI DUP1 PUSH4 0x485D7D94 EQ PUSH2 0xA9 JUMPI DUP1 PUSH4 0x4B51D560 EQ PUSH2 0xC5 JUMPI DUP1 PUSH4 0x715018A6 EQ PUSH2 0xE1 JUMPI JUMPDEST PUSH1 0x0 DUP1 REVERT JUMPDEST PUSH2 0xA7 PUSH1 0x4 DUP1 CALLDATASIZE SUB DUP2 ADD SWAP1 PUSH2 0xA2 SWAP2 SWAP1 PUSH2 0xD26 JUMP JUMPDEST PUSH2 0x171 JUMP JUMPDEST STOP JUMPDEST PUSH2 0xC3 PUSH1 0x4 DUP1 CALLDATASIZE SUB DUP2 ADD SWAP1 PUSH2 0xBE SWAP2 SWAP1 PUSH2 0xDE4 JUMP JUMPDEST PUSH2 0x41B JUMP JUMPDEST STOP JUMPDEST PUSH2 0xDF PUSH1 0x4 DUP1 CALLDATASIZE SUB DUP2 ADD SWAP1 PUSH2 0xDA SWAP2 SWAP1 PUSH2 0xE67 JUMP JUMPDEST PUSH2 0x563 JUMP JUMPDEST STOP JUMPDEST PUSH2 0xE9 PUSH2 0x8B2 JUMP JUMPDEST STOP JUMPDEST PUSH2 0xF3 PUSH2 0x93A JUMP JUMPDEST PUSH1 0x40 MLOAD PUSH2 0x100 SWAP2 SWAP1 PUSH2 0xEF7 JUMP JUMPDEST PUSH1 0x40 MLOAD DUP1 SWAP2 SUB SWAP1 RETURN JUMPDEST PUSH2 0x123 PUSH1 0x4 DUP1 CALLDATASIZE SUB DUP2 ADD SWAP1 PUSH2 0x11E SWAP2 SWAP1 PUSH2 0xDE4 JUMP JUMPDEST PUSH2 0x963 JUMP JUMPDEST PUSH1 0x40 MLOAD PUSH2 0x130 SWAP2 SWAP1 PUSH2 0xF2D JUMP JUMPDEST PUSH1 0x40 MLOAD DUP1 SWAP2 SUB SWAP1 RETURN JUMPDEST PUSH2 0x153 PUSH1 0x4 DUP1 CALLDATASIZE SUB DUP2 ADD SWAP1 PUSH2 0x14E SWAP2 SWAP1 PUSH2 0xDE4 JUMP JUMPDEST PUSH2 0x983 JUMP JUMPDEST STOP JUMPDEST PUSH2 0x16F PUSH1 0x4 DUP1 CALLDATASIZE SUB DUP2 ADD SWAP1 PUSH2 0x16A SWAP2 SWAP1 PUSH2 0xDE4 JUMP JUMPDEST PUSH2 0xA92 JUMP JUMPDEST STOP JUMPDEST PUSH1 0x1 PUSH1 0x0 CALLER PUSH20 0xFFFFFFFFFFFFFFFFFFFFFFFFFFFFFFFFFFFFFFFF AND PUSH20 0xFFFFFFFFFFFFFFFFFFFFFFFFFFFFFFFFFFFFFFFF AND DUP2 MSTORE PUSH1 0x20 ADD SWAP1 DUP2 MSTORE PUSH1 0x20 ADD PUSH1 0x0 KECCAK256 PUSH1 0x0 SWAP1 SLOAD SWAP1 PUSH2 0x100 EXP SWAP1 DIV PUSH1 0xFF AND DUP1 PUSH2 0x1FB JUMPI POP CALLER PUSH20 0xFFFFFFFFFFFFFFFFFFFFFFFFFFFFFFFFFFFFFFFF AND PUSH2 0x1E3 PUSH2 0x93A JUMP JUMPDEST PUSH20 0xFFFFFFFFFFFFFFFFFFFFFFFFFFFFFFFFFFFFFFFF AND EQ JUMPDEST PUSH2 0x23A JUMPI PUSH1 0x40 MLOAD PUSH32 0x8C379A000000000000000000000000000000000000000000000000000000000 DUP2 MSTORE PUSH1 0x4 ADD PUSH2 0x231 SWAP1 PUSH2 0xFCB JUMP JUMPDEST PUSH1 0x40 MLOAD DUP1 SWAP2 SUB SWAP1 REVERT JUMPDEST PUSH1 0x0 CALLER SWAP1 POP PUSH1 0xC8 DUP5 DUP5 SWAP1 POP GT ISZERO PUSH2 0x286 JUMPI PUSH1 0x40 MLOAD PUSH32 0x8C379A000000000000000000000000000000000000000000000000000000000 DUP2 MSTORE PUSH1 0x4 ADD PUSH2 0x27D SWAP1 PUSH2 0x1037 JUMP JUMPDEST PUSH1 0x40 MLOAD DUP1 SWAP2 SUB SWAP1 REVERT JUMPDEST PUSH1 0x0 PUSH2 0x29E DUP4 DUP7 DUP7 SWAP1 POP PUSH2 0xB89 SWAP1 SWAP2 SWAP1 PUSH4 0xFFFFFFFF AND JUMP JUMPDEST SWAP1 POP PUSH1 0x0 SELFBALANCE SWAP1 POP DUP2 DUP2 LT ISZERO PUSH2 0x2E8 JUMPI PUSH1 0x40 MLOAD PUSH32 0x8C379A000000000000000000000000000000000000000000000000000000000 DUP2 MSTORE PUSH1 0x4 ADD PUSH2 0x2DF SWAP1 PUSH2 0x10C9 JUMP JUMPDEST PUSH1 0x40 MLOAD DUP1 SWAP2 SUB SWAP1 REVERT JUMPDEST PUSH1 0x0 JUMPDEST DUP7 DUP7 SWAP1 POP DUP2 PUSH1 0xFF AND LT ISZERO PUSH2 0x3D9 JUMPI PUSH1 0x2 PUSH1 0x0 SWAP1 SLOAD SWAP1 PUSH2 0x100 EXP SWAP1 DIV PUSH20 0xFFFFFFFFFFFFFFFFFFFFFFFFFFFFFFFFFFFFFFFF AND PUSH20 0xFFFFFFFFFFFFFFFFFFFFFFFFFFFFFFFFFFFFFFFF AND PUSH4 0x23B872DD DUP6 DUP10 DUP10 DUP6 PUSH1 0xFF AND DUP2 DUP2 LT PUSH2 0x34E JUMPI PUSH2 0x34D PUSH2 0x10E9 JUMP JUMPDEST JUMPDEST SWAP1 POP PUSH1 0x20 MUL ADD PUSH1 0x20 DUP2 ADD SWAP1 PUSH2 0x363 SWAP2 SWAP1 PUSH2 0xDE4 JUMP JUMPDEST DUP9 PUSH1 0x40 MLOAD DUP5 PUSH4 0xFFFFFFFF AND PUSH1 0xE0 SHL DUP2 MSTORE PUSH1 0x4 ADD PUSH2 0x382 SWAP4 SWAP3 SWAP2 SWAP1 PUSH2 0x1127 JUMP JUMPDEST PUSH1 0x20 PUSH1 0x40 MLOAD DUP1 DUP4 SUB DUP2 PUSH1 0x0 DUP8 GAS CALL ISZERO DUP1 ISZERO PUSH2 0x3A1 JUMPI RETURNDATASIZE PUSH1 0x0 DUP1 RETURNDATACOPY RETURNDATASIZE PUSH1 0x0 REVERT JUMPDEST POP POP POP POP PUSH1 0x40 MLOAD RETURNDATASIZE PUSH1 0x1F NOT PUSH1 0x1F DUP3 ADD AND DUP3 ADD DUP1 PUSH1 0x40 MSTORE POP DUP2 ADD SWAP1 PUSH2 0x3C5 SWAP2 SWAP1 PUSH2 0x118A JUMP JUMPDEST POP DUP1 DUP1 PUSH2 0x3D1 SWAP1 PUSH2 0x11F3 JUMP JUMPDEST SWAP2 POP POP PUSH2 0x2EB JUMP JUMPDEST POP PUSH32 0xE4E3577249108DAAA0A07E6D9AABC5FEF8E89EC09DA3F9DCCFE7EF215E4EFC12 DUP4 DUP4 PUSH1 0x40 MLOAD PUSH2 0x40B SWAP3 SWAP2 SWAP1 PUSH2 0x121C JUMP JUMPDEST PUSH1 0x40 MLOAD DUP1 SWAP2 SUB SWAP1 LOG1 POP POP POP POP POP POP JUMP JUMPDEST PUSH2 0x423 PUSH2 0xB9F JUMP JUMPDEST PUSH20 0xFFFFFFFFFFFFFFFFFFFFFFFFFFFFFFFFFFFFFFFF AND PUSH2 0x441 PUSH2 0x93A JUMP JUMPDEST PUSH20 0xFFFFFFFFFFFFFFFFFFFFFFFFFFFFFFFFFFFFFFFF AND EQ PUSH2 0x497 JUMPI PUSH1 0x40 MLOAD PUSH32 0x8C379A000000000000000000000000000000000000000000000000000000000 DUP2 MSTORE PUSH1 0x4 ADD PUSH2 0x48E SWAP1 PUSH2 0x1291 JUMP JUMPDEST PUSH1 0x40 MLOAD DUP1 SWAP2 SUB SWAP1 REVERT JUMPDEST PUSH1 0x0 PUSH20 0xFFFFFFFFFFFFFFFFFFFFFFFFFFFFFFFFFFFFFFFF AND DUP2 PUSH20 0xFFFFFFFFFFFFFFFFFFFFFFFFFFFFFFFFFFFFFFFF AND SUB PUSH2 0x4D0 JUMPI PUSH1 0x0 DUP1 REVERT JUMPDEST CALLER PUSH20 0xFFFFFFFFFFFFFFFFFFFFFFFFFFFFFFFFFFFFFFFF AND DUP2 PUSH20 0xFFFFFFFFFFFFFFFFFFFFFFFFFFFFFFFFFFFFFFFF AND SUB PUSH2 0x508 JUMPI PUSH1 0x0 DUP1 REVERT JUMPDEST PUSH1 0x0 PUSH1 0x1 PUSH1 0x0 DUP4 PUSH20 0xFFFFFFFFFFFFFFFFFFFFFFFFFFFFFFFFFFFFFFFF AND PUSH20 0xFFFFFFFFFFFFFFFFFFFFFFFFFFFFFFFFFFFFFFFF AND DUP2 MSTORE PUSH1 0x20 ADD SWAP1 DUP2 MSTORE PUSH1 0x20 ADD PUSH1 0x0 KECCAK256 PUSH1 0x0 PUSH2 0x100 EXP DUP2 SLOAD DUP2 PUSH1 0xFF MUL NOT AND SWAP1 DUP4 ISZERO ISZERO MUL OR SWAP1 SSTORE POP POP JUMP JUMPDEST PUSH1 0x1 PUSH1 0x0 CALLER PUSH20 0xFFFFFFFFFFFFFFFFFFFFFFFFFFFFFFFFFFFFFFFF AND PUSH20 0xFFFFFFFFFFFFFFFFFFFFFFFFFFFFFFFFFFFFFFFF AND DUP2 MSTORE PUSH1 0x20 ADD SWAP1 DUP2 MSTORE PUSH1 0x20 ADD PUSH1 0x0 KECCAK256 PUSH1 0x0 SWAP1 SLOAD SWAP1 PUSH2 0x100 EXP SWAP1 DIV PUSH1 0xFF AND DUP1 PUSH2 0x5ED JUMPI POP CALLER PUSH20 0xFFFFFFFFFFFFFFFFFFFFFFFFFFFFFFFFFFFFFFFF AND PUSH2 0x5D5 PUSH2 0x93A JUMP JUMPDEST PUSH20 0xFFFFFFFFFFFFFFFFFFFFFFFFFFFFFFFFFFFFFFFF AND EQ JUMPDEST PUSH2 0x62C JUMPI PUSH1 0x40 MLOAD PUSH32 0x8C379A000000000000000000000000000000000000000000000000000000000 DUP2 MSTORE PUSH1 0x4 ADD PUSH2 0x623 SWAP1 PUSH2 0xFCB JUMP JUMPDEST PUSH1 0x40 MLOAD DUP1 SWAP2 SUB SWAP1 REVERT JUMPDEST PUSH1 0x0 CALLER SWAP1 POP DUP3 DUP3 SWAP1 POP DUP6 DUP6 SWAP1 POP EQ PUSH2 0x679 JUMPI PUSH1 0x40 MLOAD PUSH32 0x8C379A000000000000000000000000000000000000000000000000000000000 DUP2 MSTORE PUSH1 0x4 ADD PUSH2 0x670 SWAP1 PUSH2 0x12FD JUMP JUMPDEST PUSH1 0x40 MLOAD DUP1 SWAP2 SUB SWAP1 REVERT JUMPDEST PUSH1 0xC8 DUP6 DUP6 SWAP1 POP GT ISZERO PUSH2 0x6C0 JUMPI PUSH1 0x40 MLOAD PUSH32 0x8C379A000000000000000000000000000000000000000000000000000000000 DUP2 MSTORE PUSH1 0x4 ADD PUSH2 0x6B7 SWAP1 PUSH2 0x1037 JUMP JUMPDEST PUSH1 0x40 MLOAD DUP1 SWAP2 SUB SWAP1 REVERT JUMPDEST PUSH1 0x0 SELFBALANCE SWAP1 POP PUSH1 0x0 DUP1 PUSH1 0x0 SWAP1 POP JUMPDEST DUP8 DUP8 SWAP1 POP DUP2 PUSH1 0xFF AND LT ISZERO PUSH2 0x71E JUMPI PUSH2 0x70A DUP7 DUP7 DUP4 PUSH1 0xFF AND DUP2 DUP2 LT PUSH2 0x6F4 JUMPI PUSH2 0x6F3 PUSH2 0x10E9 JUMP JUMPDEST JUMPDEST SWAP1 POP PUSH1 0x20 MUL ADD CALLDATALOAD DUP4 PUSH2 0xBA7 SWAP1 SWAP2 SWAP1 PUSH4 0xFFFFFFFF AND JUMP JUMPDEST POP DUP1 DUP1 PUSH2 0x716 SWAP1 PUSH2 0x11F3 JUMP JUMPDEST SWAP2 POP POP PUSH2 0x6CD JUMP JUMPDEST POP DUP1 DUP3 LT ISZERO PUSH2 0x762 JUMPI PUSH1 0x40 MLOAD PUSH32 0x8C379A000000000000000000000000000000000000000000000000000000000 DUP2 MSTORE PUSH1 0x4 ADD PUSH2 0x759 SWAP1 PUSH2 0x10C9 JUMP JUMPDEST PUSH1 0x40 MLOAD DUP1 SWAP2 SUB SWAP1 REVERT JUMPDEST PUSH1 0x0 JUMPDEST DUP8 DUP8 SWAP1 POP DUP2 PUSH1 0xFF AND LT ISZERO PUSH2 0x86F JUMPI PUSH1 0x2 PUSH1 0x0 SWAP1 SLOAD SWAP1 PUSH2 0x100 EXP SWAP1 DIV PUSH20 0xFFFFFFFFFFFFFFFFFFFFFFFFFFFFFFFFFFFFFFFF AND PUSH20 0xFFFFFFFFFFFFFFFFFFFFFFFFFFFFFFFFFFFFFFFF AND PUSH4 0x23B872DD CALLER DUP11 DUP11 DUP6 PUSH1 0xFF AND DUP2 DUP2 LT PUSH2 0x7C8 JUMPI PUSH2 0x7C7 PUSH2 0x10E9 JUMP JUMPDEST JUMPDEST SWAP1 POP PUSH1 0x20 MUL ADD PUSH1 0x20 DUP2 ADD SWAP1 PUSH2 0x7DD SWAP2 SWAP1 PUSH2 0xDE4 JUMP JUMPDEST DUP10 DUP10 DUP7 PUSH1 0xFF AND DUP2 DUP2 LT PUSH2 0x7F3 JUMPI PUSH2 0x7F2 PUSH2 0x10E9 JUMP JUMPDEST JUMPDEST SWAP1 POP PUSH1 0x20 MUL ADD CALLDATALOAD PUSH1 0x40 MLOAD DUP5 PUSH4 0xFFFFFFFF AND PUSH1 0xE0 SHL DUP2 MSTORE PUSH1 0x4 ADD PUSH2 0x818 SWAP4 SWAP3 SWAP2 SWAP1 PUSH2 0x1127 JUMP JUMPDEST PUSH1 0x20 PUSH1 0x40 MLOAD DUP1 DUP4 SUB DUP2 PUSH1 0x0 DUP8 GAS CALL ISZERO DUP1 ISZERO PUSH2 0x837 JUMPI RETURNDATASIZE PUSH1 0x0 DUP1 RETURNDATACOPY RETURNDATASIZE PUSH1 0x0 REVERT JUMPDEST POP POP POP POP PUSH1 0x40 MLOAD RETURNDATASIZE PUSH1 0x1F NOT PUSH1 0x1F DUP3 ADD AND DUP3 ADD DUP1 PUSH1 0x40 MSTORE POP DUP2 ADD SWAP1 PUSH2 0x85B SWAP2 SWAP1 PUSH2 0x118A JUMP JUMPDEST POP DUP1 DUP1 PUSH2 0x867 SWAP1 PUSH2 0x11F3 JUMP JUMPDEST SWAP2 POP POP PUSH2 0x765 JUMP JUMPDEST POP PUSH32 0xE4E3577249108DAAA0A07E6D9AABC5FEF8E89EC09DA3F9DCCFE7EF215E4EFC12 DUP4 DUP3 PUSH1 0x40 MLOAD PUSH2 0x8A1 SWAP3 SWAP2 SWAP1 PUSH2 0x121C JUMP JUMPDEST PUSH1 0x40 MLOAD DUP1 SWAP2 SUB SWAP1 LOG1 POP POP POP POP POP POP POP JUMP JUMPDEST PUSH2 0x8BA PUSH2 0xB9F JUMP JUMPDEST PUSH20 0xFFFFFFFFFFFFFFFFFFFFFFFFFFFFFFFFFFFFFFFF AND PUSH2 0x8D8 PUSH2 0x93A JUMP JUMPDEST PUSH20 0xFFFFFFFFFFFFFFFFFFFFFFFFFFFFFFFFFFFFFFFF AND EQ PUSH2 0x92E JUMPI PUSH1 0x40 MLOAD PUSH32 0x8C379A000000000000000000000000000000000000000000000000000000000 DUP2 MSTORE PUSH1 0x4 ADD PUSH2 0x925 SWAP1 PUSH2 0x1291 JUMP JUMPDEST PUSH1 0x40 MLOAD DUP1 SWAP2 SUB SWAP1 REVERT JUMPDEST PUSH2 0x938 PUSH1 0x0 PUSH2 0xBBD JUMP JUMPDEST JUMP JUMPDEST PUSH1 0x0 DUP1 PUSH1 0x0 SWAP1 SLOAD SWAP1 PUSH2 0x100 EXP SWAP1 DIV PUSH20 0xFFFFFFFFFFFFFFFFFFFFFFFFFFFFFFFFFFFFFFFF AND SWAP1 POP SWAP1 JUMP JUMPDEST PUSH1 0x1 PUSH1 0x20 MSTORE DUP1 PUSH1 0x0 MSTORE PUSH1 0x40 PUSH1 0x0 KECCAK256 PUSH1 0x0 SWAP2 POP SLOAD SWAP1 PUSH2 0x100 EXP SWAP1 DIV PUSH1 0xFF AND DUP2 JUMP JUMPDEST PUSH2 0x98B PUSH2 0xB9F JUMP JUMPDEST PUSH20 0xFFFFFFFFFFFFFFFFFFFFFFFFFFFFFFFFFFFFFFFF AND PUSH2 0x9A9 PUSH2 0x93A JUMP JUMPDEST PUSH20 0xFFFFFFFFFFFFFFFFFFFFFFFFFFFFFFFFFFFFFFFF AND EQ PUSH2 0x9FF JUMPI PUSH1 0x40 MLOAD PUSH32 0x8C379A000000000000000000000000000000000000000000000000000000000 DUP2 MSTORE PUSH1 0x4 ADD PUSH2 0x9F6 SWAP1 PUSH2 0x1291 JUMP JUMPDEST PUSH1 0x40 MLOAD DUP1 SWAP2 SUB SWAP1 REVERT JUMPDEST PUSH1 0x0 PUSH20 0xFFFFFFFFFFFFFFFFFFFFFFFFFFFFFFFFFFFFFFFF AND DUP2 PUSH20 0xFFFFFFFFFFFFFFFFFFFFFFFFFFFFFFFFFFFFFFFF AND SUB PUSH2 0xA38 JUMPI PUSH1 0x0 DUP1 REVERT JUMPDEST PUSH1 0x1 DUP1 PUSH1 0x0 DUP4 PUSH20 0xFFFFFFFFFFFFFFFFFFFFFFFFFFFFFFFFFFFFFFFF AND PUSH20 0xFFFFFFFFFFFFFFFFFFFFFFFFFFFFFFFFFFFFFFFF AND DUP2 MSTORE PUSH1 0x20 ADD SWAP1 DUP2 MSTORE PUSH1 0x20 ADD PUSH1 0x0 KECCAK256 PUSH1 0x0 PUSH2 0x100 EXP DUP2 SLOAD DUP2 PUSH1 0xFF MUL NOT AND SWAP1 DUP4 ISZERO ISZERO MUL OR SWAP1 SSTORE POP POP JUMP JUMPDEST PUSH2 0xA9A PUSH2 0xB9F JUMP JUMPDEST PUSH20 0xFFFFFFFFFFFFFFFFFFFFFFFFFFFFFFFFFFFFFFFF AND PUSH2 0xAB8 PUSH2 0x93A JUMP JUMPDEST PUSH20 0xFFFFFFFFFFFFFFFFFFFFFFFFFFFFFFFFFFFFFFFF AND EQ PUSH2 0xB0E JUMPI PUSH1 0x40 MLOAD PUSH32 0x8C379A000000000000000000000000000000000000000000000000000000000 DUP2 MSTORE PUSH1 0x4 ADD PUSH2 0xB05 SWAP1 PUSH2 0x1291 JUMP JUMPDEST PUSH1 0x40 MLOAD DUP1 SWAP2 SUB SWAP1 REVERT JUMPDEST PUSH1 0x0 PUSH20 0xFFFFFFFFFFFFFFFFFFFFFFFFFFFFFFFFFFFFFFFF AND DUP2 PUSH20 0xFFFFFFFFFFFFFFFFFFFFFFFFFFFFFFFFFFFFFFFF AND SUB PUSH2 0xB7D JUMPI PUSH1 0x40 MLOAD PUSH32 0x8C379A000000000000000000000000000000000000000000000000000000000 DUP2 MSTORE PUSH1 0x4 ADD PUSH2 0xB74 SWAP1 PUSH2 0x138F JUMP JUMPDEST PUSH1 0x40 MLOAD DUP1 SWAP2 SUB SWAP1 REVERT JUMPDEST PUSH2 0xB86 DUP2 PUSH2 0xBBD JUMP JUMPDEST POP JUMP JUMPDEST PUSH1 0x0 DUP2 DUP4 PUSH2 0xB97 SWAP2 SWAP1 PUSH2 0x13AF JUMP JUMPDEST SWAP1 POP SWAP3 SWAP2 POP POP JUMP JUMPDEST PUSH1 0x0 CALLER SWAP1 POP SWAP1 JUMP JUMPDEST PUSH1 0x0 DUP2 DUP4 PUSH2 0xBB5 SWAP2 SWAP1 PUSH2 0x1409 JUMP JUMPDEST SWAP1 POP SWAP3 SWAP2 POP POP JUMP JUMPDEST PUSH1 0x0 DUP1 PUSH1 0x0 SWAP1 SLOAD SWAP1 PUSH2 0x100 EXP SWAP1 DIV PUSH20 0xFFFFFFFFFFFFFFFFFFFFFFFFFFFFFFFFFFFFFFFF AND SWAP1 POP DUP2 PUSH1 0x0 DUP1 PUSH2 0x100 EXP DUP2 SLOAD DUP2 PUSH20 0xFFFFFFFFFFFFFFFFFFFFFFFFFFFFFFFFFFFFFFFF MUL NOT AND SWAP1 DUP4 PUSH20 0xFFFFFFFFFFFFFFFFFFFFFFFFFFFFFFFFFFFFFFFF AND MUL OR SWAP1 SSTORE POP DUP2 PUSH20 0xFFFFFFFFFFFFFFFFFFFFFFFFFFFFFFFFFFFFFFFF AND DUP2 PUSH20 0xFFFFFFFFFFFFFFFFFFFFFFFFFFFFFFFFFFFFFFFF AND PUSH32 0x8BE0079C531659141344CD1FD0A4F28419497F9722A3DAAFE3B4186F6B6457E0 PUSH1 0x40 MLOAD PUSH1 0x40 MLOAD DUP1 SWAP2 SUB SWAP1 LOG3 POP POP JUMP JUMPDEST PUSH1 0x0 DUP1 REVERT JUMPDEST PUSH1 0x0 DUP1 REVERT JUMPDEST PUSH1 0x0 DUP1 REVERT JUMPDEST PUSH1 0x0 DUP1 REVERT JUMPDEST PUSH1 0x0 DUP1 REVERT JUMPDEST PUSH1 0x0 DUP1 DUP4 PUSH1 0x1F DUP5 ADD SLT PUSH2 0xCB0 JUMPI PUSH2 0xCAF PUSH2 0xC8B JUMP JUMPDEST JUMPDEST DUP3 CALLDATALOAD SWAP1 POP PUSH8 0xFFFFFFFFFFFFFFFF DUP2 GT ISZERO PUSH2 0xCCD JUMPI PUSH2 0xCCC PUSH2 0xC90 JUMP JUMPDEST JUMPDEST PUSH1 0x20 DUP4 ADD SWAP2 POP DUP4 PUSH1 0x20 DUP3 MUL DUP4 ADD GT ISZERO PUSH2 0xCE9 JUMPI PUSH2 0xCE8 PUSH2 0xC95 JUMP JUMPDEST JUMPDEST SWAP3 POP SWAP3 SWAP1 POP JUMP JUMPDEST PUSH1 0x0 DUP2 SWAP1 POP SWAP2 SWAP1 POP JUMP JUMPDEST PUSH2 0xD03 DUP2 PUSH2 0xCF0 JUMP JUMPDEST DUP2 EQ PUSH2 0xD0E JUMPI PUSH1 0x0 DUP1 REVERT JUMPDEST POP JUMP JUMPDEST PUSH1 0x0 DUP2 CALLDATALOAD SWAP1 POP PUSH2 0xD20 DUP2 PUSH2 0xCFA JUMP JUMPDEST SWAP3 SWAP2 POP POP JUMP JUMPDEST PUSH1 0x0 DUP1 PUSH1 0x0 PUSH1 0x40 DUP5 DUP7 SUB SLT ISZERO PUSH2 0xD3F JUMPI PUSH2 0xD3E PUSH2 0xC81 JUMP JUMPDEST JUMPDEST PUSH1 0x0 DUP5 ADD CALLDATALOAD PUSH8 0xFFFFFFFFFFFFFFFF DUP2 GT ISZERO PUSH2 0xD5D JUMPI PUSH2 0xD5C PUSH2 0xC86 JUMP JUMPDEST JUMPDEST PUSH2 0xD69 DUP7 DUP3 DUP8 ADD PUSH2 0xC9A JUMP JUMPDEST SWAP4 POP SWAP4 POP POP PUSH1 0x20 PUSH2 0xD7C DUP7 DUP3 DUP8 ADD PUSH2 0xD11 JUMP JUMPDEST SWAP2 POP POP SWAP3 POP SWAP3 POP SWAP3 JUMP JUMPDEST PUSH1 0x0 PUSH20 0xFFFFFFFFFFFFFFFFFFFFFFFFFFFFFFFFFFFFFFFF DUP3 AND SWAP1 POP SWAP2 SWAP1 POP JUMP JUMPDEST PUSH1 0x0 PUSH2 0xDB1 DUP3 PUSH2 0xD86 JUMP JUMPDEST SWAP1 POP SWAP2 SWAP1 POP JUMP JUMPDEST PUSH2 0xDC1 DUP2 PUSH2 0xDA6 JUMP JUMPDEST DUP2 EQ PUSH2 0xDCC JUMPI PUSH1 0x0 DUP1 REVERT JUMPDEST POP JUMP JUMPDEST PUSH1 0x0 DUP2 CALLDATALOAD SWAP1 POP PUSH2 0xDDE DUP2 PUSH2 0xDB8 JUMP JUMPDEST SWAP3 SWAP2 POP POP JUMP JUMPDEST PUSH1 0x0 PUSH1 0x20 DUP3 DUP5 SUB SLT ISZERO PUSH2 0xDFA JUMPI PUSH2 0xDF9 PUSH2 0xC81 JUMP JUMPDEST JUMPDEST PUSH1 0x0 PUSH2 0xE08 DUP5 DUP3 DUP6 ADD PUSH2 0xDCF JUMP JUMPDEST SWAP2 POP POP SWAP3 SWAP2 POP POP JUMP JUMPDEST PUSH1 0x0 DUP1 DUP4 PUSH1 0x1F DUP5 ADD SLT PUSH2 0xE27 JUMPI PUSH2 0xE26 PUSH2 0xC8B JUMP JUMPDEST JUMPDEST DUP3 CALLDATALOAD SWAP1 POP PUSH8 0xFFFFFFFFFFFFFFFF DUP2 GT ISZERO PUSH2 0xE44 JUMPI PUSH2 0xE43 PUSH2 0xC90 JUMP JUMPDEST JUMPDEST PUSH1 0x20 DUP4 ADD SWAP2 POP DUP4 PUSH1 0x20 DUP3 MUL DUP4 ADD GT ISZERO PUSH2 0xE60 JUMPI PUSH2 0xE5F PUSH2 0xC95 JUMP JUMPDEST JUMPDEST SWAP3 POP SWAP3 SWAP1 POP JUMP JUMPDEST PUSH1 0x0 DUP1 PUSH1 0x0 DUP1 PUSH1 0x40 DUP6 DUP8 SUB SLT ISZERO PUSH2 0xE81 JUMPI PUSH2 0xE80 PUSH2 0xC81 JUMP JUMPDEST JUMPDEST PUSH1 0x0 DUP6 ADD CALLDATALOAD PUSH8 0xFFFFFFFFFFFFFFFF DUP2 GT ISZERO PUSH2 0xE9F JUMPI PUSH2 0xE9E PUSH2 0xC86 JUMP JUMPDEST JUMPDEST PUSH2 0xEAB DUP8 DUP3 DUP9 ADD PUSH2 0xC9A JUMP JUMPDEST SWAP5 POP SWAP5 POP POP PUSH1 0x20 DUP6 ADD CALLDATALOAD PUSH8 0xFFFFFFFFFFFFFFFF DUP2 GT ISZERO PUSH2 0xECE JUMPI PUSH2 0xECD PUSH2 0xC86 JUMP JUMPDEST JUMPDEST PUSH2 0xEDA DUP8 DUP3 DUP9 ADD PUSH2 0xE11 JUMP JUMPDEST SWAP3 POP SWAP3 POP POP SWAP3 SWAP6 SWAP2 SWAP5 POP SWAP3 POP JUMP JUMPDEST PUSH2 0xEF1 DUP2 PUSH2 0xDA6 JUMP JUMPDEST DUP3 MSTORE POP POP JUMP JUMPDEST PUSH1 0x0 PUSH1 0x20 DUP3 ADD SWAP1 POP PUSH2 0xF0C PUSH1 0x0 DUP4 ADD DUP5 PUSH2 0xEE8 JUMP JUMPDEST SWAP3 SWAP2 POP POP JUMP JUMPDEST PUSH1 0x0 DUP2 ISZERO ISZERO SWAP1 POP SWAP2 SWAP1 POP JUMP JUMPDEST PUSH2 0xF27 DUP2 PUSH2 0xF12 JUMP JUMPDEST DUP3 MSTORE POP POP JUMP JUMPDEST PUSH1 0x0 PUSH1 0x20 DUP3 ADD SWAP1 POP PUSH2 0xF42 PUSH1 0x0 DUP4 ADD DUP5 PUSH2 0xF1E JUMP JUMPDEST SWAP3 SWAP2 POP POP JUMP JUMPDEST PUSH1 0x0 DUP3 DUP3 MSTORE PUSH1 0x20 DUP3 ADD SWAP1 POP SWAP3 SWAP2 POP POP JUMP JUMPDEST PUSH32 0x4F6E6C7920417574686F72697A65642041646D696E732061726520616C6C6F77 PUSH1 0x0 DUP3 ADD MSTORE PUSH32 0x656420746F206163636573732074686973207365727669636500000000000000 PUSH1 0x20 DUP3 ADD MSTORE POP JUMP JUMPDEST PUSH1 0x0 PUSH2 0xFB5 PUSH1 0x39 DUP4 PUSH2 0xF48 JUMP JUMPDEST SWAP2 POP PUSH2 0xFC0 DUP3 PUSH2 0xF59 JUMP JUMPDEST PUSH1 0x40 DUP3 ADD SWAP1 POP SWAP2 SWAP1 POP JUMP JUMPDEST PUSH1 0x0 PUSH1 0x20 DUP3 ADD SWAP1 POP DUP2 DUP2 SUB PUSH1 0x0 DUP4 ADD MSTORE PUSH2 0xFE4 DUP2 PUSH2 0xFA8 JUMP JUMPDEST SWAP1 POP SWAP2 SWAP1 POP JUMP JUMPDEST PUSH32 0x657863656564206D617820616C6C6F7765640000000000000000000000000000 PUSH1 0x0 DUP3 ADD MSTORE POP JUMP JUMPDEST PUSH1 0x0 PUSH2 0x1021 PUSH1 0x12 DUP4 PUSH2 0xF48 JUMP JUMPDEST SWAP2 POP PUSH2 0x102C DUP3 PUSH2 0xFEB JUMP JUMPDEST PUSH1 0x20 DUP3 ADD SWAP1 POP SWAP2 SWAP1 POP JUMP JUMPDEST PUSH1 0x0 PUSH1 0x20 DUP3 ADD SWAP1 POP DUP2 DUP2 SUB PUSH1 0x0 DUP4 ADD MSTORE PUSH2 0x1050 DUP2 PUSH2 0x1014 JUMP JUMPDEST SWAP1 POP SWAP2 SWAP1 POP JUMP JUMPDEST PUSH32 0x596F75722062616C616E6365206973206C6F776572207468616E207468652061 PUSH1 0x0 DUP3 ADD MSTORE PUSH32 0x6D6F756E74206F6620746F6B656E7320796F752077616E7420746F2073656C6C PUSH1 0x20 DUP3 ADD MSTORE POP JUMP JUMPDEST PUSH1 0x0 PUSH2 0x10B3 PUSH1 0x40 DUP4 PUSH2 0xF48 JUMP JUMPDEST SWAP2 POP PUSH2 0x10BE DUP3 PUSH2 0x1057 JUMP JUMPDEST PUSH1 0x40 DUP3 ADD SWAP1 POP SWAP2 SWAP1 POP JUMP JUMPDEST PUSH1 0x0 PUSH1 0x20 DUP3 ADD SWAP1 POP DUP2 DUP2 SUB PUSH1 0x0 DUP4 ADD MSTORE PUSH2 0x10E2 DUP2 PUSH2 0x10A6 JUMP JUMPDEST SWAP1 POP SWAP2 SWAP1 POP JUMP JUMPDEST PUSH32 0x4E487B7100000000000000000000000000000000000000000000000000000000 PUSH1 0x0 MSTORE PUSH1 0x32 PUSH1 0x4 MSTORE PUSH1 0x24 PUSH1 0x0 REVERT JUMPDEST PUSH2 0x1121 DUP2 PUSH2 0xCF0 JUMP JUMPDEST DUP3 MSTORE POP POP JUMP JUMPDEST PUSH1 0x0 PUSH1 0x60 DUP3 ADD SWAP1 POP PUSH2 0x113C PUSH1 0x0 DUP4 ADD DUP7 PUSH2 0xEE8 JUMP JUMPDEST PUSH2 0x1149 PUSH1 0x20 DUP4 ADD DUP6 PUSH2 0xEE8 JUMP JUMPDEST PUSH2 0x1156 PUSH1 0x40 DUP4 ADD DUP5 PUSH2 0x1118 JUMP JUMPDEST SWAP5 SWAP4 POP POP POP POP JUMP JUMPDEST PUSH2 0x1167 DUP2 PUSH2 0xF12 JUMP JUMPDEST DUP2 EQ PUSH2 0x1172 JUMPI PUSH1 0x0 DUP1 REVERT JUMPDEST POP JUMP JUMPDEST PUSH1 0x0 DUP2 MLOAD SWAP1 POP PUSH2 0x1184 DUP2 PUSH2 0x115E JUMP JUMPDEST SWAP3 SWAP2 POP POP JUMP JUMPDEST PUSH1 0x0 PUSH1 0x20 DUP3 DUP5 SUB SLT ISZERO PUSH2 0x11A0 JUMPI PUSH2 0x119F PUSH2 0xC81 JUMP JUMPDEST JUMPDEST PUSH1 0x0 PUSH2 0x11AE DUP5 DUP3 DUP6 ADD PUSH2 0x1175 JUMP JUMPDEST SWAP2 POP POP SWAP3 SWAP2 POP POP JUMP JUMPDEST PUSH32 0x4E487B7100000000000000000000000000000000000000000000000000000000 PUSH1 0x0 MSTORE PUSH1 0x11 PUSH1 0x4 MSTORE PUSH1 0x24 PUSH1 0x0 REVERT JUMPDEST PUSH1 0x0 PUSH1 0xFF DUP3 AND SWAP1 POP SWAP2 SWAP1 POP JUMP JUMPDEST PUSH1 0x0 PUSH2 0x11FE DUP3 PUSH2 0x11E6 JUMP JUMPDEST SWAP2 POP PUSH1 0xFF DUP3 SUB PUSH2 0x1211 JUMPI PUSH2 0x1210 PUSH2 0x11B7 JUMP JUMPDEST JUMPDEST PUSH1 0x1 DUP3 ADD SWAP1 POP SWAP2 SWAP1 POP JUMP JUMPDEST PUSH1 0x0 PUSH1 0x40 DUP3 ADD SWAP1 POP PUSH2 0x1231 PUSH1 0x0 DUP4 ADD DUP6 PUSH2 0xEE8 JUMP JUMPDEST PUSH2 0x123E PUSH1 0x20 DUP4 ADD DUP5 PUSH2 0x1118 JUMP JUMPDEST SWAP4 SWAP3 POP POP POP JUMP JUMPDEST PUSH32 0x4F776E61626C653A2063616C6C6572206973206E6F7420746865206F776E6572 PUSH1 0x0 DUP3 ADD MSTORE POP JUMP JUMPDEST PUSH1 0x0 PUSH2 0x127B PUSH1 0x20 DUP4 PUSH2 0xF48 JUMP JUMPDEST SWAP2 POP PUSH2 0x1286 DUP3 PUSH2 0x1245 JUMP JUMPDEST PUSH1 0x20 DUP3 ADD SWAP1 POP SWAP2 SWAP1 POP JUMP JUMPDEST PUSH1 0x0 PUSH1 0x20 DUP3 ADD SWAP1 POP DUP2 DUP2 SUB PUSH1 0x0 DUP4 ADD MSTORE PUSH2 0x12AA DUP2 PUSH2 0x126E JUMP JUMPDEST SWAP1 POP SWAP2 SWAP1 POP JUMP JUMPDEST PUSH32 0x696E76616C696420696E70757400000000000000000000000000000000000000 PUSH1 0x0 DUP3 ADD MSTORE POP JUMP JUMPDEST PUSH1 0x0 PUSH2 0x12E7 PUSH1 0xD DUP4 PUSH2 0xF48 JUMP JUMPDEST SWAP2 POP PUSH2 0x12F2 DUP3 PUSH2 0x12B1 JUMP JUMPDEST PUSH1 0x20 DUP3 ADD SWAP1 POP SWAP2 SWAP1 POP JUMP JUMPDEST PUSH1 0x0 PUSH1 0x20 DUP3 ADD SWAP1 POP DUP2 DUP2 SUB PUSH1 0x0 DUP4 ADD MSTORE PUSH2 0x1316 DUP2 PUSH2 0x12DA JUMP JUMPDEST SWAP1 POP SWAP2 SWAP1 POP JUMP JUMPDEST PUSH32 0x4F776E61626C653A206E6577206F776E657220697320746865207A65726F2061 PUSH1 0x0 DUP3 ADD MSTORE PUSH32 0x6464726573730000000000000000000000000000000000000000000000000000 PUSH1 0x20 DUP3 ADD MSTORE POP JUMP JUMPDEST PUSH1 0x0 PUSH2 0x1379 PUSH1 0x26 DUP4 PUSH2 0xF48 JUMP JUMPDEST SWAP2 POP PUSH2 0x1384 DUP3 PUSH2 0x131D JUMP JUMPDEST PUSH1 0x40 DUP3 ADD SWAP1 POP SWAP2 SWAP1 POP JUMP JUMPDEST PUSH1 0x0 PUSH1 0x20 DUP3 ADD SWAP1 POP DUP2 DUP2 SUB PUSH1 0x0 DUP4 ADD MSTORE PUSH2 0x13A8 DUP2 PUSH2 0x136C JUMP JUMPDEST SWAP1 POP SWAP2 SWAP1 POP JUMP JUMPDEST PUSH1 0x0 PUSH2 0x13BA DUP3 PUSH2 0xCF0 JUMP JUMPDEST SWAP2 POP PUSH2 0x13C5 DUP4 PUSH2 0xCF0 JUMP JUMPDEST SWAP3 POP DUP2 PUSH32 0xFFFFFFFFFFFFFFFFFFFFFFFFFFFFFFFFFFFFFFFFFFFFFFFFFFFFFFFFFFFFFFFF DIV DUP4 GT DUP3 ISZERO ISZERO AND ISZERO PUSH2 0x13FE JUMPI PUSH2 0x13FD PUSH2 0x11B7 JUMP JUMPDEST JUMPDEST DUP3 DUP3 MUL SWAP1 POP SWAP3 SWAP2 POP POP JUMP JUMPDEST PUSH1 0x0 PUSH2 0x1414 DUP3 PUSH2 0xCF0 JUMP JUMPDEST SWAP2 POP PUSH2 0x141F DUP4 PUSH2 0xCF0 JUMP JUMPDEST SWAP3 POP DUP3 PUSH32 0xFFFFFFFFFFFFFFFFFFFFFFFFFFFFFFFFFFFFFFFFFFFFFFFFFFFFFFFFFFFFFFFF SUB DUP3 GT ISZERO PUSH2 0x1454 JUMPI PUSH2 0x1453 PUSH2 0x11B7 JUMP JUMPDEST JUMPDEST DUP3 DUP3 ADD SWAP1 POP SWAP3 SWAP2 POP POP JUMP INVALID LOG2 PUSH5 0x6970667358 0x22 SLT KECCAK256 0xED 0x23 PUSH17 0x5058B2A7C864D39318798B61AABBC36CD2 PUSH4 0x80239028 CALLDATACOPY 0xC 0x2B 0xAE RETURN STOP BALANCE PUSH5 0x736F6C6343 STOP ADDMOD 0xD STOP CALLER "
        },
        "gasEstimates": {
          "creation": {
            "codeDepositCost": "1053800",
            "executionCost": "infinite",
            "totalCost": "infinite"
          },
          "external": {
            "AirdropDifferentValue(address[],uint256[])": "infinite",
            "AirdropSameValue(address[],uint256)": "infinite",
            "addAuthorized(address)": "27131",
            "authorized(address)": "2867",
            "owner()": "2522",
            "removeAuthorized(address)": "27144",
            "renounceOwnership()": "30441",
            "transferOwnership(address)": "30786"
          }
        },
        "methodIdentifiers": {
          "AirdropDifferentValue(address[],uint256[])": "4b51d560",
          "AirdropSameValue(address[],uint256)": "1eaa45a3",
          "addAuthorized(address)": "cf1c316a",
          "authorized(address)": "b9181611",
          "owner()": "8da5cb5b",
          "removeAuthorized(address)": "485d7d94",
          "renounceOwnership()": "715018a6",
          "transferOwnership(address)": "f2fde38b"
        }
      },
      "storageLayout": {
        "storage": [
          {
            "astId": 7,
            "contract": "contracts/BulkSender.sol:BulkSender",
            "label": "_owner",
            "offset": 0,
            "slot": "0",
            "type": "t_address"
          },
          {
            "astId": 1138,
            "contract": "contracts/BulkSender.sol:BulkSender",
            "label": "authorized",
            "offset": 0,
            "slot": "1",
            "type": "t_mapping(t_address,t_bool)"
          },
          {
            "astId": 1230,
            "contract": "contracts/BulkSender.sol:BulkSender",
            "label": "nestcoin",
            "offset": 0,
            "slot": "2",
            "type": "t_contract(Nestcoin)1446"
          }
        ],
        "types": {
          "t_address": {
            "encoding": "inplace",
            "label": "address",
            "numberOfBytes": "20"
          },
          "t_bool": {
            "encoding": "inplace",
            "label": "bool",
            "numberOfBytes": "1"
          },
          "t_contract(Nestcoin)1446": {
            "encoding": "inplace",
            "label": "contract Nestcoin",
            "numberOfBytes": "20"
          },
          "t_mapping(t_address,t_bool)": {
            "encoding": "mapping",
            "key": "t_address",
            "label": "mapping(address => bool)",
            "numberOfBytes": "32",
            "value": "t_bool"
          }
        }
      },
      "userdoc": {
        "kind": "user",
        "methods": {},
        "version": 1
      }
    }
  }
}