{
  "contracts/BulkSender.sol": {
    "BulkSender": {
      "abi": [
        {
          "anonymous": false,
          "inputs": [
            {
              "indexed": false,
              "internalType": "address",
              "name": "token",
              "type": "address"
            },
            {
              "indexed": false,
              "internalType": "address",
              "name": "from",
              "type": "address"
            },
            {
              "indexed": false,
              "internalType": "uint256",
              "name": "total",
              "type": "uint256"
            }
          ],
          "name": "LogTokenBulkSent",
          "type": "event"
        },
        {
          "anonymous": false,
          "inputs": [
            {
              "indexed": false,
              "internalType": "address",
              "name": "from",
              "type": "address"
            },
            {
              "indexed": false,
              "internalType": "uint256",
              "name": "total",
              "type": "uint256"
            }
          ],
          "name": "LogTokenBulkSentETH",
          "type": "event"
        },
        {
          "anonymous": false,
          "inputs": [
            {
              "indexed": true,
              "internalType": "address",
              "name": "previousOwner",
              "type": "address"
            },
            {
              "indexed": true,
              "internalType": "address",
              "name": "newOwner",
              "type": "address"
            }
          ],
          "name": "OwnershipTransferred",
          "type": "event"
        },
        {
          "inputs": [
            {
              "internalType": "address",
              "name": "_toAdd",
              "type": "address"
            }
          ],
          "name": "addAuthorized",
          "outputs": [],
          "stateMutability": "nonpayable",
          "type": "function"
        },
        {
          "inputs": [
            {
              "internalType": "address",
              "name": "",
              "type": "address"
            }
          ],
          "name": "authorized",
          "outputs": [
            {
              "internalType": "bool",
              "name": "",
              "type": "bool"
            }
          ],
          "stateMutability": "view",
          "type": "function"
        },
        {
          "inputs": [
            {
              "internalType": "address[]",
              "name": "_to",
              "type": "address[]"
            },
            {
              "internalType": "uint256[]",
              "name": "_value",
              "type": "uint256[]"
            }
          ],
          "name": "ethSendDifferentValue",
          "outputs": [],
          "stateMutability": "payable",
          "type": "function"
        },
        {
          "inputs": [
            {
              "internalType": "address[]",
              "name": "_to",
              "type": "address[]"
            },
            {
              "internalType": "uint256",
              "name": "_value",
              "type": "uint256"
            }
          ],
          "name": "ethSendSameValue",
          "outputs": [],
          "stateMutability": "payable",
          "type": "function"
        },
        {
          "inputs": [],
          "name": "owner",
          "outputs": [
            {
              "internalType": "address",
              "name": "",
              "type": "address"
            }
          ],
          "stateMutability": "view",
          "type": "function"
        },
        {
          "inputs": [
            {
              "internalType": "address",
              "name": "_toRemove",
              "type": "address"
            }
          ],
          "name": "removeAuthorized",
          "outputs": [],
          "stateMutability": "nonpayable",
          "type": "function"
        },
        {
          "inputs": [],
          "name": "renounceOwnership",
          "outputs": [],
          "stateMutability": "nonpayable",
          "type": "function"
        },
        {
          "inputs": [
            {
              "internalType": "address",
              "name": "_tokenAddress",
              "type": "address"
            },
            {
              "internalType": "address[]",
              "name": "_to",
              "type": "address[]"
            },
            {
              "internalType": "uint256[]",
              "name": "_value",
              "type": "uint256[]"
            }
          ],
          "name": "sendDifferentValue",
          "outputs": [],
          "stateMutability": "nonpayable",
          "type": "function"
        },
        {
          "inputs": [
            {
              "internalType": "address",
              "name": "_tokenAddress",
              "type": "address"
            },
            {
              "internalType": "address[]",
              "name": "_to",
              "type": "address[]"
            },
            {
              "internalType": "uint256",
              "name": "_value",
              "type": "uint256"
            }
          ],
          "name": "sendSameValue",
          "outputs": [],
          "stateMutability": "nonpayable",
          "type": "function"
        },
        {
          "inputs": [
            {
              "internalType": "address",
              "name": "newOwner",
              "type": "address"
            }
          ],
          "name": "transferOwnership",
          "outputs": [],
          "stateMutability": "nonpayable",
          "type": "function"
        }
      ],
      "evm": {
        "bytecode": {
          "linkReferences": {},
          "object": "608060405234801561001057600080fd5b5061002d61002261003260201b60201c565b61003a60201b60201c565b6100fe565b600033905090565b60008060009054906101000a900473ffffffffffffffffffffffffffffffffffffffff169050816000806101000a81548173ffffffffffffffffffffffffffffffffffffffff021916908373ffffffffffffffffffffffffffffffffffffffff1602179055508173ffffffffffffffffffffffffffffffffffffffff168173ffffffffffffffffffffffffffffffffffffffff167f8be0079c531659141344cd1fd0a4f28419497f9722a3daafe3b4186f6b6457e060405160405180910390a35050565b6119608061010d6000396000f3fe6080604052600436106100915760003560e01c80638602c8d3116100595780638602c8d3146101445780638da5cb5b14610160578063b91816111461018b578063cf1c316a146101c8578063f2fde38b146101f157610091565b8063161676001461009657806320fa6fd9146100bf578063485d7d94146100db578063715018a614610104578063848da8301461011b575b600080fd5b3480156100a257600080fd5b506100bd60048036038101906100b89190611192565b61021a565b005b6100d960048036038101906100d49190611206565b61042c565b005b3480156100e757600080fd5b5061010260048036038101906100fd9190611266565b610671565b005b34801561011057600080fd5b506101196107b9565b005b34801561012757600080fd5b50610142600480360381019061013d91906112e9565b610841565b005b61015e6004803603810190610159919061137e565b610acf565b005b34801561016c57600080fd5b50610175610d48565b604051610182919061140e565b60405180910390f35b34801561019757600080fd5b506101b260048036038101906101ad9190611266565b610d71565b6040516101bf9190611444565b60405180910390f35b3480156101d457600080fd5b506101ef60048036038101906101ea9190611266565b610d91565b005b3480156101fd57600080fd5b5061021860048036038101906102139190611266565b610ea0565b005b600160003373ffffffffffffffffffffffffffffffffffffffff1673ffffffffffffffffffffffffffffffffffffffff16815260200190815260200160002060009054906101000a900460ff16806102a457503373ffffffffffffffffffffffffffffffffffffffff1661028c610d48565b73ffffffffffffffffffffffffffffffffffffffff16145b6102ad57600080fd5b600033905060c88484905011156102f9576040517f08c379a00000000000000000000000000000000000000000000000000000000081526004016102f0906114bc565b60405180910390fd5b60006103118386869050610f9790919063ffffffff16565b9050600086905060005b868690508160ff1610156103e7578173ffffffffffffffffffffffffffffffffffffffff166323b872dd8589898560ff1681811061035c5761035b6114dc565b5b90506020020160208101906103719190611266565b886040518463ffffffff1660e01b81526004016103909392919061151a565b6020604051808303816000875af11580156103af573d6000803e3d6000fd5b505050506040513d601f19601f820116820180604052508101906103d3919061157d565b5080806103df906115e6565b91505061031b565b507f50a5a05e4fcf8317a50616363e195b0a9c76db2e758ebbc24078f086e7f62c9787848460405161041b9392919061151a565b60405180910390a150505050505050565b600160003373ffffffffffffffffffffffffffffffffffffffff1673ffffffffffffffffffffffffffffffffffffffff16815260200190815260200160002060009054906101000a900460ff16806104b657503373ffffffffffffffffffffffffffffffffffffffff1661049e610d48565b73ffffffffffffffffffffffffffffffffffffffff16145b6104bf57600080fd5b60006104d78285859050610f9790919063ffffffff16565b90506000349050600033905082821015610526576040517f08c379a000000000000000000000000000000000000000000000000000000000815260040161051d9061165b565b60405180910390fd5b60c886869050111561056d576040517f08c379a0000000000000000000000000000000000000000000000000000000008152600401610564906114bc565b60405180910390fd5b60005b868690508160ff16101561062f5786868260ff16818110610594576105936114dc565b5b90506020020160208101906105a99190611266565b73ffffffffffffffffffffffffffffffffffffffff166108fc869081150290604051600060405180830381858888f1935050505061061c576040517f08c379a0000000000000000000000000000000000000000000000000000000008152600401610613906116c7565b60405180910390fd5b8080610627906115e6565b915050610570565b507f714a2addab51b8b8bc3959203d8aa34a8be7ef33215f404cd2c9fcfa3397523e81836040516106619291906116e7565b60405180910390a1505050505050565b610679610fad565b73ffffffffffffffffffffffffffffffffffffffff16610697610d48565b73ffffffffffffffffffffffffffffffffffffffff16146106ed576040517f08c379a00000000000000000000000000000000000000000000000000000000081526004016106e49061175c565b60405180910390fd5b600073ffffffffffffffffffffffffffffffffffffffff168173ffffffffffffffffffffffffffffffffffffffff160361072657600080fd5b3373ffffffffffffffffffffffffffffffffffffffff168173ffffffffffffffffffffffffffffffffffffffff160361075e57600080fd5b6000600160008373ffffffffffffffffffffffffffffffffffffffff1673ffffffffffffffffffffffffffffffffffffffff16815260200190815260200160002060006101000a81548160ff02191690831515021790555050565b6107c1610fad565b73ffffffffffffffffffffffffffffffffffffffff166107df610d48565b73ffffffffffffffffffffffffffffffffffffffff1614610835576040517f08c379a000000000000000000000000000000000000000000000000000000000815260040161082c9061175c565b60405180910390fd5b61083f6000610fb5565b565b600160003373ffffffffffffffffffffffffffffffffffffffff1673ffffffffffffffffffffffffffffffffffffffff16815260200190815260200160002060009054906101000a900460ff16806108cb57503373ffffffffffffffffffffffffffffffffffffffff166108b3610d48565b73ffffffffffffffffffffffffffffffffffffffff16145b6108d457600080fd5b6000339050828290508585905014610921576040517f08c379a0000000000000000000000000000000000000000000000000000000008152600401610918906117c8565b60405180910390fd5b60ff858590501115610968576040517f08c379a000000000000000000000000000000000000000000000000000000000815260040161095f906114bc565b60405180910390fd5b60008087905060005b878790508160ff161015610a89578173ffffffffffffffffffffffffffffffffffffffff166323b872dd338a8a8560ff168181106109b2576109b16114dc565b5b90506020020160208101906109c79190611266565b89898660ff168181106109dd576109dc6114dc565b5b905060200201356040518463ffffffff1660e01b8152600401610a029392919061151a565b6020604051808303816000875af1158015610a21573d6000803e3d6000fd5b505050506040513d601f19601f82011682018060405250810190610a45919061157d565b50610a7586868360ff16818110610a5f57610a5e6114dc565b5b905060200201358461107990919063ffffffff16565b508080610a81906115e6565b915050610971565b507f50a5a05e4fcf8317a50616363e195b0a9c76db2e758ebbc24078f086e7f62c97888484604051610abd9392919061151a565b60405180910390a15050505050505050565b600160003373ffffffffffffffffffffffffffffffffffffffff1673ffffffffffffffffffffffffffffffffffffffff16815260200190815260200160002060009054906101000a900460ff1680610b5957503373ffffffffffffffffffffffffffffffffffffffff16610b41610d48565b73ffffffffffffffffffffffffffffffffffffffff16145b610b6257600080fd5b600082826000818110610b7857610b776114dc565b5b9050602002013590506000349050600033905082821015610bce576040517f08c379a0000000000000000000000000000000000000000000000000000000008152600401610bc59061165b565b60405180910390fd5b848490508787905014610c16576040517f08c379a0000000000000000000000000000000000000000000000000000000008152600401610c0d906117c8565b60405180910390fd5b60c8878790501115610c5d576040517f08c379a0000000000000000000000000000000000000000000000000000000008152600401610c54906114bc565b60405180910390fd5b60005b878790508160ff161015610d055787878260ff16818110610c8457610c836114dc565b5b9050602002016020810190610c999190611266565b73ffffffffffffffffffffffffffffffffffffffff166108fc87878460ff16818110610cc857610cc76114dc565b5b905060200201359081150290604051600060405180830381858888f19350505050610cf257600080fd5b8080610cfd906115e6565b915050610c60565b507f714a2addab51b8b8bc3959203d8aa34a8be7ef33215f404cd2c9fcfa3397523e8183604051610d379291906116e7565b60405180910390a150505050505050565b60008060009054906101000a900473ffffffffffffffffffffffffffffffffffffffff16905090565b60016020528060005260406000206000915054906101000a900460ff1681565b610d99610fad565b73ffffffffffffffffffffffffffffffffffffffff16610db7610d48565b73ffffffffffffffffffffffffffffffffffffffff1614610e0d576040517f08c379a0000000000000000000000000000000000000000000000000000000008152600401610e049061175c565b60405180910390fd5b600073ffffffffffffffffffffffffffffffffffffffff168173ffffffffffffffffffffffffffffffffffffffff1603610e4657600080fd5b60018060008373ffffffffffffffffffffffffffffffffffffffff1673ffffffffffffffffffffffffffffffffffffffff16815260200190815260200160002060006101000a81548160ff02191690831515021790555050565b610ea8610fad565b73ffffffffffffffffffffffffffffffffffffffff16610ec6610d48565b73ffffffffffffffffffffffffffffffffffffffff1614610f1c576040517f08c379a0000000000000000000000000000000000000000000000000000000008152600401610f139061175c565b60405180910390fd5b600073ffffffffffffffffffffffffffffffffffffffff168173ffffffffffffffffffffffffffffffffffffffff1603610f8b576040517f08c379a0000000000000000000000000000000000000000000000000000000008152600401610f829061185a565b60405180910390fd5b610f9481610fb5565b50565b60008183610fa5919061187a565b905092915050565b600033905090565b60008060009054906101000a900473ffffffffffffffffffffffffffffffffffffffff169050816000806101000a81548173ffffffffffffffffffffffffffffffffffffffff021916908373ffffffffffffffffffffffffffffffffffffffff1602179055508173ffffffffffffffffffffffffffffffffffffffff168173ffffffffffffffffffffffffffffffffffffffff167f8be0079c531659141344cd1fd0a4f28419497f9722a3daafe3b4186f6b6457e060405160405180910390a35050565b6000818361108791906118d4565b905092915050565b600080fd5b600080fd5b600073ffffffffffffffffffffffffffffffffffffffff82169050919050565b60006110c482611099565b9050919050565b6110d4816110b9565b81146110df57600080fd5b50565b6000813590506110f1816110cb565b92915050565b600080fd5b600080fd5b600080fd5b60008083601f84011261111c5761111b6110f7565b5b8235905067ffffffffffffffff811115611139576111386110fc565b5b60208301915083602082028301111561115557611154611101565b5b9250929050565b6000819050919050565b61116f8161115c565b811461117a57600080fd5b50565b60008135905061118c81611166565b92915050565b600080600080606085870312156111ac576111ab61108f565b5b60006111ba878288016110e2565b945050602085013567ffffffffffffffff8111156111db576111da611094565b5b6111e787828801611106565b935093505060406111fa8782880161117d565b91505092959194509250565b60008060006040848603121561121f5761121e61108f565b5b600084013567ffffffffffffffff81111561123d5761123c611094565b5b61124986828701611106565b9350935050602061125c8682870161117d565b9150509250925092565b60006020828403121561127c5761127b61108f565b5b600061128a848285016110e2565b91505092915050565b60008083601f8401126112a9576112a86110f7565b5b8235905067ffffffffffffffff8111156112c6576112c56110fc565b5b6020830191508360208202830111156112e2576112e1611101565b5b9250929050565b6000806000806000606086880312156113055761130461108f565b5b6000611313888289016110e2565b955050602086013567ffffffffffffffff81111561133457611333611094565b5b61134088828901611106565b9450945050604086013567ffffffffffffffff81111561136357611362611094565b5b61136f88828901611293565b92509250509295509295909350565b600080600080604085870312156113985761139761108f565b5b600085013567ffffffffffffffff8111156113b6576113b5611094565b5b6113c287828801611106565b9450945050602085013567ffffffffffffffff8111156113e5576113e4611094565b5b6113f187828801611293565b925092505092959194509250565b611408816110b9565b82525050565b600060208201905061142360008301846113ff565b92915050565b60008115159050919050565b61143e81611429565b82525050565b60006020820190506114596000830184611435565b92915050565b600082825260208201905092915050565b7f657863656564206d617820616c6c6f7765640000000000000000000000000000600082015250565b60006114a660128361145f565b91506114b182611470565b602082019050919050565b600060208201905081810360008301526114d581611499565b9050919050565b7f4e487b7100000000000000000000000000000000000000000000000000000000600052603260045260246000fd5b6115148161115c565b82525050565b600060608201905061152f60008301866113ff565b61153c60208301856113ff565b611549604083018461150b565b949350505050565b61155a81611429565b811461156557600080fd5b50565b60008151905061157781611551565b92915050565b6000602082840312156115935761159261108f565b5b60006115a184828501611568565b91505092915050565b7f4e487b7100000000000000000000000000000000000000000000000000000000600052601160045260246000fd5b600060ff82169050919050565b60006115f1826115d9565b915060ff8203611604576116036115aa565b5b600182019050919050565b7f496e73756666696369656e742062616c616e6365000000000000000000000000600082015250565b600061164560148361145f565b91506116508261160f565b602082019050919050565b6000602082019050818103600083015261167481611638565b9050919050565b7f6661696c656420746f2073656e64000000000000000000000000000000000000600082015250565b60006116b1600e8361145f565b91506116bc8261167b565b602082019050919050565b600060208201905081810360008301526116e0816116a4565b9050919050565b60006040820190506116fc60008301856113ff565b611709602083018461150b565b9392505050565b7f4f776e61626c653a2063616c6c6572206973206e6f7420746865206f776e6572600082015250565b600061174660208361145f565b915061175182611710565b602082019050919050565b6000602082019050818103600083015261177581611739565b9050919050565b7f696e76616c696420696e70757400000000000000000000000000000000000000600082015250565b60006117b2600d8361145f565b91506117bd8261177c565b602082019050919050565b600060208201905081810360008301526117e1816117a5565b9050919050565b7f4f776e61626c653a206e6577206f776e657220697320746865207a65726f206160008201527f6464726573730000000000000000000000000000000000000000000000000000602082015250565b600061184460268361145f565b915061184f826117e8565b604082019050919050565b6000602082019050818103600083015261187381611837565b9050919050565b60006118858261115c565b91506118908361115c565b9250817fffffffffffffffffffffffffffffffffffffffffffffffffffffffffffffffff04831182151516156118c9576118c86115aa565b5b828202905092915050565b60006118df8261115c565b91506118ea8361115c565b9250827fffffffffffffffffffffffffffffffffffffffffffffffffffffffffffffffff0382111561191f5761191e6115aa565b5b82820190509291505056fea2646970667358221220344a5c3e8fc8419749c08f7eafc1cbc6044d024f4bcc2005f5b3f36b8896056764736f6c634300080d0033",
          "opcodes": "PUSH1 0x80 PUSH1 0x40 MSTORE CALLVALUE DUP1 ISZERO PUSH2 0x10 JUMPI PUSH1 0x0 DUP1 REVERT JUMPDEST POP PUSH2 0x2D PUSH2 0x22 PUSH2 0x32 PUSH1 0x20 SHL PUSH1 0x20 SHR JUMP JUMPDEST PUSH2 0x3A PUSH1 0x20 SHL PUSH1 0x20 SHR JUMP JUMPDEST PUSH2 0xFE JUMP JUMPDEST PUSH1 0x0 CALLER SWAP1 POP SWAP1 JUMP JUMPDEST PUSH1 0x0 DUP1 PUSH1 0x0 SWAP1 SLOAD SWAP1 PUSH2 0x100 EXP SWAP1 DIV PUSH20 0xFFFFFFFFFFFFFFFFFFFFFFFFFFFFFFFFFFFFFFFF AND SWAP1 POP DUP2 PUSH1 0x0 DUP1 PUSH2 0x100 EXP DUP2 SLOAD DUP2 PUSH20 0xFFFFFFFFFFFFFFFFFFFFFFFFFFFFFFFFFFFFFFFF MUL NOT AND SWAP1 DUP4 PUSH20 0xFFFFFFFFFFFFFFFFFFFFFFFFFFFFFFFFFFFFFFFF AND MUL OR SWAP1 SSTORE POP DUP2 PUSH20 0xFFFFFFFFFFFFFFFFFFFFFFFFFFFFFFFFFFFFFFFF AND DUP2 PUSH20 0xFFFFFFFFFFFFFFFFFFFFFFFFFFFFFFFFFFFFFFFF AND PUSH32 0x8BE0079C531659141344CD1FD0A4F28419497F9722A3DAAFE3B4186F6B6457E0 PUSH1 0x40 MLOAD PUSH1 0x40 MLOAD DUP1 SWAP2 SUB SWAP1 LOG3 POP POP JUMP JUMPDEST PUSH2 0x1960 DUP1 PUSH2 0x10D PUSH1 0x0 CODECOPY PUSH1 0x0 RETURN INVALID PUSH1 0x80 PUSH1 0x40 MSTORE PUSH1 0x4 CALLDATASIZE LT PUSH2 0x91 JUMPI PUSH1 0x0 CALLDATALOAD PUSH1 0xE0 SHR DUP1 PUSH4 0x8602C8D3 GT PUSH2 0x59 JUMPI DUP1 PUSH4 0x8602C8D3 EQ PUSH2 0x144 JUMPI DUP1 PUSH4 0x8DA5CB5B EQ PUSH2 0x160 JUMPI DUP1 PUSH4 0xB9181611 EQ PUSH2 0x18B JUMPI DUP1 PUSH4 0xCF1C316A EQ PUSH2 0x1C8 JUMPI DUP1 PUSH4 0xF2FDE38B EQ PUSH2 0x1F1 JUMPI PUSH2 0x91 JUMP JUMPDEST DUP1 PUSH4 0x16167600 EQ PUSH2 0x96 JUMPI DUP1 PUSH4 0x20FA6FD9 EQ PUSH2 0xBF JUMPI DUP1 PUSH4 0x485D7D94 EQ PUSH2 0xDB JUMPI DUP1 PUSH4 0x715018A6 EQ PUSH2 0x104 JUMPI DUP1 PUSH4 0x848DA830 EQ PUSH2 0x11B JUMPI JUMPDEST PUSH1 0x0 DUP1 REVERT JUMPDEST CALLVALUE DUP1 ISZERO PUSH2 0xA2 JUMPI PUSH1 0x0 DUP1 REVERT JUMPDEST POP PUSH2 0xBD PUSH1 0x4 DUP1 CALLDATASIZE SUB DUP2 ADD SWAP1 PUSH2 0xB8 SWAP2 SWAP1 PUSH2 0x1192 JUMP JUMPDEST PUSH2 0x21A JUMP JUMPDEST STOP JUMPDEST PUSH2 0xD9 PUSH1 0x4 DUP1 CALLDATASIZE SUB DUP2 ADD SWAP1 PUSH2 0xD4 SWAP2 SWAP1 PUSH2 0x1206 JUMP JUMPDEST PUSH2 0x42C JUMP JUMPDEST STOP JUMPDEST CALLVALUE DUP1 ISZERO PUSH2 0xE7 JUMPI PUSH1 0x0 DUP1 REVERT JUMPDEST POP PUSH2 0x102 PUSH1 0x4 DUP1 CALLDATASIZE SUB DUP2 ADD SWAP1 PUSH2 0xFD SWAP2 SWAP1 PUSH2 0x1266 JUMP JUMPDEST PUSH2 0x671 JUMP JUMPDEST STOP JUMPDEST CALLVALUE DUP1 ISZERO PUSH2 0x110 JUMPI PUSH1 0x0 DUP1 REVERT JUMPDEST POP PUSH2 0x119 PUSH2 0x7B9 JUMP JUMPDEST STOP JUMPDEST CALLVALUE DUP1 ISZERO PUSH2 0x127 JUMPI PUSH1 0x0 DUP1 REVERT JUMPDEST POP PUSH2 0x142 PUSH1 0x4 DUP1 CALLDATASIZE SUB DUP2 ADD SWAP1 PUSH2 0x13D SWAP2 SWAP1 PUSH2 0x12E9 JUMP JUMPDEST PUSH2 0x841 JUMP JUMPDEST STOP JUMPDEST PUSH2 0x15E PUSH1 0x4 DUP1 CALLDATASIZE SUB DUP2 ADD SWAP1 PUSH2 0x159 SWAP2 SWAP1 PUSH2 0x137E JUMP JUMPDEST PUSH2 0xACF JUMP JUMPDEST STOP JUMPDEST CALLVALUE DUP1 ISZERO PUSH2 0x16C JUMPI PUSH1 0x0 DUP1 REVERT JUMPDEST POP PUSH2 0x175 PUSH2 0xD48 JUMP JUMPDEST PUSH1 0x40 MLOAD PUSH2 0x182 SWAP2 SWAP1 PUSH2 0x140E JUMP JUMPDEST PUSH1 0x40 MLOAD DUP1 SWAP2 SUB SWAP1 RETURN JUMPDEST CALLVALUE DUP1 ISZERO PUSH2 0x197 JUMPI PUSH1 0x0 DUP1 REVERT JUMPDEST POP PUSH2 0x1B2 PUSH1 0x4 DUP1 CALLDATASIZE SUB DUP2 ADD SWAP1 PUSH2 0x1AD SWAP2 SWAP1 PUSH2 0x1266 JUMP JUMPDEST PUSH2 0xD71 JUMP JUMPDEST PUSH1 0x40 MLOAD PUSH2 0x1BF SWAP2 SWAP1 PUSH2 0x1444 JUMP JUMPDEST PUSH1 0x40 MLOAD DUP1 SWAP2 SUB SWAP1 RETURN JUMPDEST CALLVALUE DUP1 ISZERO PUSH2 0x1D4 JUMPI PUSH1 0x0 DUP1 REVERT JUMPDEST POP PUSH2 0x1EF PUSH1 0x4 DUP1 CALLDATASIZE SUB DUP2 ADD SWAP1 PUSH2 0x1EA SWAP2 SWAP1 PUSH2 0x1266 JUMP JUMPDEST PUSH2 0xD91 JUMP JUMPDEST STOP JUMPDEST CALLVALUE DUP1 ISZERO PUSH2 0x1FD JUMPI PUSH1 0x0 DUP1 REVERT JUMPDEST POP PUSH2 0x218 PUSH1 0x4 DUP1 CALLDATASIZE SUB DUP2 ADD SWAP1 PUSH2 0x213 SWAP2 SWAP1 PUSH2 0x1266 JUMP JUMPDEST PUSH2 0xEA0 JUMP JUMPDEST STOP JUMPDEST PUSH1 0x1 PUSH1 0x0 CALLER PUSH20 0xFFFFFFFFFFFFFFFFFFFFFFFFFFFFFFFFFFFFFFFF AND PUSH20 0xFFFFFFFFFFFFFFFFFFFFFFFFFFFFFFFFFFFFFFFF AND DUP2 MSTORE PUSH1 0x20 ADD SWAP1 DUP2 MSTORE PUSH1 0x20 ADD PUSH1 0x0 KECCAK256 PUSH1 0x0 SWAP1 SLOAD SWAP1 PUSH2 0x100 EXP SWAP1 DIV PUSH1 0xFF AND DUP1 PUSH2 0x2A4 JUMPI POP CALLER PUSH20 0xFFFFFFFFFFFFFFFFFFFFFFFFFFFFFFFFFFFFFFFF AND PUSH2 0x28C PUSH2 0xD48 JUMP JUMPDEST PUSH20 0xFFFFFFFFFFFFFFFFFFFFFFFFFFFFFFFFFFFFFFFF AND EQ JUMPDEST PUSH2 0x2AD JUMPI PUSH1 0x0 DUP1 REVERT JUMPDEST PUSH1 0x0 CALLER SWAP1 POP PUSH1 0xC8 DUP5 DUP5 SWAP1 POP GT ISZERO PUSH2 0x2F9 JUMPI PUSH1 0x40 MLOAD PUSH32 0x8C379A000000000000000000000000000000000000000000000000000000000 DUP2 MSTORE PUSH1 0x4 ADD PUSH2 0x2F0 SWAP1 PUSH2 0x14BC JUMP JUMPDEST PUSH1 0x40 MLOAD DUP1 SWAP2 SUB SWAP1 REVERT JUMPDEST PUSH1 0x0 PUSH2 0x311 DUP4 DUP7 DUP7 SWAP1 POP PUSH2 0xF97 SWAP1 SWAP2 SWAP1 PUSH4 0xFFFFFFFF AND JUMP JUMPDEST SWAP1 POP PUSH1 0x0 DUP7 SWAP1 POP PUSH1 0x0 JUMPDEST DUP7 DUP7 SWAP1 POP DUP2 PUSH1 0xFF AND LT ISZERO PUSH2 0x3E7 JUMPI DUP2 PUSH20 0xFFFFFFFFFFFFFFFFFFFFFFFFFFFFFFFFFFFFFFFF AND PUSH4 0x23B872DD DUP6 DUP10 DUP10 DUP6 PUSH1 0xFF AND DUP2 DUP2 LT PUSH2 0x35C JUMPI PUSH2 0x35B PUSH2 0x14DC JUMP JUMPDEST JUMPDEST SWAP1 POP PUSH1 0x20 MUL ADD PUSH1 0x20 DUP2 ADD SWAP1 PUSH2 0x371 SWAP2 SWAP1 PUSH2 0x1266 JUMP JUMPDEST DUP9 PUSH1 0x40 MLOAD DUP5 PUSH4 0xFFFFFFFF AND PUSH1 0xE0 SHL DUP2 MSTORE PUSH1 0x4 ADD PUSH2 0x390 SWAP4 SWAP3 SWAP2 SWAP1 PUSH2 0x151A JUMP JUMPDEST PUSH1 0x20 PUSH1 0x40 MLOAD DUP1 DUP4 SUB DUP2 PUSH1 0x0 DUP8 GAS CALL ISZERO DUP1 ISZERO PUSH2 0x3AF JUMPI RETURNDATASIZE PUSH1 0x0 DUP1 RETURNDATACOPY RETURNDATASIZE PUSH1 0x0 REVERT JUMPDEST POP POP POP POP PUSH1 0x40 MLOAD RETURNDATASIZE PUSH1 0x1F NOT PUSH1 0x1F DUP3 ADD AND DUP3 ADD DUP1 PUSH1 0x40 MSTORE POP DUP2 ADD SWAP1 PUSH2 0x3D3 SWAP2 SWAP1 PUSH2 0x157D JUMP JUMPDEST POP DUP1 DUP1 PUSH2 0x3DF SWAP1 PUSH2 0x15E6 JUMP JUMPDEST SWAP2 POP POP PUSH2 0x31B JUMP JUMPDEST POP PUSH32 0x50A5A05E4FCF8317A50616363E195B0A9C76DB2E758EBBC24078F086E7F62C97 DUP8 DUP5 DUP5 PUSH1 0x40 MLOAD PUSH2 0x41B SWAP4 SWAP3 SWAP2 SWAP1 PUSH2 0x151A JUMP JUMPDEST PUSH1 0x40 MLOAD DUP1 SWAP2 SUB SWAP1 LOG1 POP POP POP POP POP POP POP JUMP JUMPDEST PUSH1 0x1 PUSH1 0x0 CALLER PUSH20 0xFFFFFFFFFFFFFFFFFFFFFFFFFFFFFFFFFFFFFFFF AND PUSH20 0xFFFFFFFFFFFFFFFFFFFFFFFFFFFFFFFFFFFFFFFF AND DUP2 MSTORE PUSH1 0x20 ADD SWAP1 DUP2 MSTORE PUSH1 0x20 ADD PUSH1 0x0 KECCAK256 PUSH1 0x0 SWAP1 SLOAD SWAP1 PUSH2 0x100 EXP SWAP1 DIV PUSH1 0xFF AND DUP1 PUSH2 0x4B6 JUMPI POP CALLER PUSH20 0xFFFFFFFFFFFFFFFFFFFFFFFFFFFFFFFFFFFFFFFF AND PUSH2 0x49E PUSH2 0xD48 JUMP JUMPDEST PUSH20 0xFFFFFFFFFFFFFFFFFFFFFFFFFFFFFFFFFFFFFFFF AND EQ JUMPDEST PUSH2 0x4BF JUMPI PUSH1 0x0 DUP1 REVERT JUMPDEST PUSH1 0x0 PUSH2 0x4D7 DUP3 DUP6 DUP6 SWAP1 POP PUSH2 0xF97 SWAP1 SWAP2 SWAP1 PUSH4 0xFFFFFFFF AND JUMP JUMPDEST SWAP1 POP PUSH1 0x0 CALLVALUE SWAP1 POP PUSH1 0x0 CALLER SWAP1 POP DUP3 DUP3 LT ISZERO PUSH2 0x526 JUMPI PUSH1 0x40 MLOAD PUSH32 0x8C379A000000000000000000000000000000000000000000000000000000000 DUP2 MSTORE PUSH1 0x4 ADD PUSH2 0x51D SWAP1 PUSH2 0x165B JUMP JUMPDEST PUSH1 0x40 MLOAD DUP1 SWAP2 SUB SWAP1 REVERT JUMPDEST PUSH1 0xC8 DUP7 DUP7 SWAP1 POP GT ISZERO PUSH2 0x56D JUMPI PUSH1 0x40 MLOAD PUSH32 0x8C379A000000000000000000000000000000000000000000000000000000000 DUP2 MSTORE PUSH1 0x4 ADD PUSH2 0x564 SWAP1 PUSH2 0x14BC JUMP JUMPDEST PUSH1 0x40 MLOAD DUP1 SWAP2 SUB SWAP1 REVERT JUMPDEST PUSH1 0x0 JUMPDEST DUP7 DUP7 SWAP1 POP DUP2 PUSH1 0xFF AND LT ISZERO PUSH2 0x62F JUMPI DUP7 DUP7 DUP3 PUSH1 0xFF AND DUP2 DUP2 LT PUSH2 0x594 JUMPI PUSH2 0x593 PUSH2 0x14DC JUMP JUMPDEST JUMPDEST SWAP1 POP PUSH1 0x20 MUL ADD PUSH1 0x20 DUP2 ADD SWAP1 PUSH2 0x5A9 SWAP2 SWAP1 PUSH2 0x1266 JUMP JUMPDEST PUSH20 0xFFFFFFFFFFFFFFFFFFFFFFFFFFFFFFFFFFFFFFFF AND PUSH2 0x8FC DUP7 SWAP1 DUP2 ISZERO MUL SWAP1 PUSH1 0x40 MLOAD PUSH1 0x0 PUSH1 0x40 MLOAD DUP1 DUP4 SUB DUP2 DUP6 DUP9 DUP9 CALL SWAP4 POP POP POP POP PUSH2 0x61C JUMPI PUSH1 0x40 MLOAD PUSH32 0x8C379A000000000000000000000000000000000000000000000000000000000 DUP2 MSTORE PUSH1 0x4 ADD PUSH2 0x613 SWAP1 PUSH2 0x16C7 JUMP JUMPDEST PUSH1 0x40 MLOAD DUP1 SWAP2 SUB SWAP1 REVERT JUMPDEST DUP1 DUP1 PUSH2 0x627 SWAP1 PUSH2 0x15E6 JUMP JUMPDEST SWAP2 POP POP PUSH2 0x570 JUMP JUMPDEST POP PUSH32 0x714A2ADDAB51B8B8BC3959203D8AA34A8BE7EF33215F404CD2C9FCFA3397523E DUP2 DUP4 PUSH1 0x40 MLOAD PUSH2 0x661 SWAP3 SWAP2 SWAP1 PUSH2 0x16E7 JUMP JUMPDEST PUSH1 0x40 MLOAD DUP1 SWAP2 SUB SWAP1 LOG1 POP POP POP POP POP POP JUMP JUMPDEST PUSH2 0x679 PUSH2 0xFAD JUMP JUMPDEST PUSH20 0xFFFFFFFFFFFFFFFFFFFFFFFFFFFFFFFFFFFFFFFF AND PUSH2 0x697 PUSH2 0xD48 JUMP JUMPDEST PUSH20 0xFFFFFFFFFFFFFFFFFFFFFFFFFFFFFFFFFFFFFFFF AND EQ PUSH2 0x6ED JUMPI PUSH1 0x40 MLOAD PUSH32 0x8C379A000000000000000000000000000000000000000000000000000000000 DUP2 MSTORE PUSH1 0x4 ADD PUSH2 0x6E4 SWAP1 PUSH2 0x175C JUMP JUMPDEST PUSH1 0x40 MLOAD DUP1 SWAP2 SUB SWAP1 REVERT JUMPDEST PUSH1 0x0 PUSH20 0xFFFFFFFFFFFFFFFFFFFFFFFFFFFFFFFFFFFFFFFF AND DUP2 PUSH20 0xFFFFFFFFFFFFFFFFFFFFFFFFFFFFFFFFFFFFFFFF AND SUB PUSH2 0x726 JUMPI PUSH1 0x0 DUP1 REVERT JUMPDEST CALLER PUSH20 0xFFFFFFFFFFFFFFFFFFFFFFFFFFFFFFFFFFFFFFFF AND DUP2 PUSH20 0xFFFFFFFFFFFFFFFFFFFFFFFFFFFFFFFFFFFFFFFF AND SUB PUSH2 0x75E JUMPI PUSH1 0x0 DUP1 REVERT JUMPDEST PUSH1 0x0 PUSH1 0x1 PUSH1 0x0 DUP4 PUSH20 0xFFFFFFFFFFFFFFFFFFFFFFFFFFFFFFFFFFFFFFFF AND PUSH20 0xFFFFFFFFFFFFFFFFFFFFFFFFFFFFFFFFFFFFFFFF AND DUP2 MSTORE PUSH1 0x20 ADD SWAP1 DUP2 MSTORE PUSH1 0x20 ADD PUSH1 0x0 KECCAK256 PUSH1 0x0 PUSH2 0x100 EXP DUP2 SLOAD DUP2 PUSH1 0xFF MUL NOT AND SWAP1 DUP4 ISZERO ISZERO MUL OR SWAP1 SSTORE POP POP JUMP JUMPDEST PUSH2 0x7C1 PUSH2 0xFAD JUMP JUMPDEST PUSH20 0xFFFFFFFFFFFFFFFFFFFFFFFFFFFFFFFFFFFFFFFF AND PUSH2 0x7DF PUSH2 0xD48 JUMP JUMPDEST PUSH20 0xFFFFFFFFFFFFFFFFFFFFFFFFFFFFFFFFFFFFFFFF AND EQ PUSH2 0x835 JUMPI PUSH1 0x40 MLOAD PUSH32 0x8C379A000000000000000000000000000000000000000000000000000000000 DUP2 MSTORE PUSH1 0x4 ADD PUSH2 0x82C SWAP1 PUSH2 0x175C JUMP JUMPDEST PUSH1 0x40 MLOAD DUP1 SWAP2 SUB SWAP1 REVERT JUMPDEST PUSH2 0x83F PUSH1 0x0 PUSH2 0xFB5 JUMP JUMPDEST JUMP JUMPDEST PUSH1 0x1 PUSH1 0x0 CALLER PUSH20 0xFFFFFFFFFFFFFFFFFFFFFFFFFFFFFFFFFFFFFFFF AND PUSH20 0xFFFFFFFFFFFFFFFFFFFFFFFFFFFFFFFFFFFFFFFF AND DUP2 MSTORE PUSH1 0x20 ADD SWAP1 DUP2 MSTORE PUSH1 0x20 ADD PUSH1 0x0 KECCAK256 PUSH1 0x0 SWAP1 SLOAD SWAP1 PUSH2 0x100 EXP SWAP1 DIV PUSH1 0xFF AND DUP1 PUSH2 0x8CB JUMPI POP CALLER PUSH20 0xFFFFFFFFFFFFFFFFFFFFFFFFFFFFFFFFFFFFFFFF AND PUSH2 0x8B3 PUSH2 0xD48 JUMP JUMPDEST PUSH20 0xFFFFFFFFFFFFFFFFFFFFFFFFFFFFFFFFFFFFFFFF AND EQ JUMPDEST PUSH2 0x8D4 JUMPI PUSH1 0x0 DUP1 REVERT JUMPDEST PUSH1 0x0 CALLER SWAP1 POP DUP3 DUP3 SWAP1 POP DUP6 DUP6 SWAP1 POP EQ PUSH2 0x921 JUMPI PUSH1 0x40 MLOAD PUSH32 0x8C379A000000000000000000000000000000000000000000000000000000000 DUP2 MSTORE PUSH1 0x4 ADD PUSH2 0x918 SWAP1 PUSH2 0x17C8 JUMP JUMPDEST PUSH1 0x40 MLOAD DUP1 SWAP2 SUB SWAP1 REVERT JUMPDEST PUSH1 0xFF DUP6 DUP6 SWAP1 POP GT ISZERO PUSH2 0x968 JUMPI PUSH1 0x40 MLOAD PUSH32 0x8C379A000000000000000000000000000000000000000000000000000000000 DUP2 MSTORE PUSH1 0x4 ADD PUSH2 0x95F SWAP1 PUSH2 0x14BC JUMP JUMPDEST PUSH1 0x40 MLOAD DUP1 SWAP2 SUB SWAP1 REVERT JUMPDEST PUSH1 0x0 DUP1 DUP8 SWAP1 POP PUSH1 0x0 JUMPDEST DUP8 DUP8 SWAP1 POP DUP2 PUSH1 0xFF AND LT ISZERO PUSH2 0xA89 JUMPI DUP2 PUSH20 0xFFFFFFFFFFFFFFFFFFFFFFFFFFFFFFFFFFFFFFFF AND PUSH4 0x23B872DD CALLER DUP11 DUP11 DUP6 PUSH1 0xFF AND DUP2 DUP2 LT PUSH2 0x9B2 JUMPI PUSH2 0x9B1 PUSH2 0x14DC JUMP JUMPDEST JUMPDEST SWAP1 POP PUSH1 0x20 MUL ADD PUSH1 0x20 DUP2 ADD SWAP1 PUSH2 0x9C7 SWAP2 SWAP1 PUSH2 0x1266 JUMP JUMPDEST DUP10 DUP10 DUP7 PUSH1 0xFF AND DUP2 DUP2 LT PUSH2 0x9DD JUMPI PUSH2 0x9DC PUSH2 0x14DC JUMP JUMPDEST JUMPDEST SWAP1 POP PUSH1 0x20 MUL ADD CALLDATALOAD PUSH1 0x40 MLOAD DUP5 PUSH4 0xFFFFFFFF AND PUSH1 0xE0 SHL DUP2 MSTORE PUSH1 0x4 ADD PUSH2 0xA02 SWAP4 SWAP3 SWAP2 SWAP1 PUSH2 0x151A JUMP JUMPDEST PUSH1 0x20 PUSH1 0x40 MLOAD DUP1 DUP4 SUB DUP2 PUSH1 0x0 DUP8 GAS CALL ISZERO DUP1 ISZERO PUSH2 0xA21 JUMPI RETURNDATASIZE PUSH1 0x0 DUP1 RETURNDATACOPY RETURNDATASIZE PUSH1 0x0 REVERT JUMPDEST POP POP POP POP PUSH1 0x40 MLOAD RETURNDATASIZE PUSH1 0x1F NOT PUSH1 0x1F DUP3 ADD AND DUP3 ADD DUP1 PUSH1 0x40 MSTORE POP DUP2 ADD SWAP1 PUSH2 0xA45 SWAP2 SWAP1 PUSH2 0x157D JUMP JUMPDEST POP PUSH2 0xA75 DUP7 DUP7 DUP4 PUSH1 0xFF AND DUP2 DUP2 LT PUSH2 0xA5F JUMPI PUSH2 0xA5E PUSH2 0x14DC JUMP JUMPDEST JUMPDEST SWAP1 POP PUSH1 0x20 MUL ADD CALLDATALOAD DUP5 PUSH2 0x1079 SWAP1 SWAP2 SWAP1 PUSH4 0xFFFFFFFF AND JUMP JUMPDEST POP DUP1 DUP1 PUSH2 0xA81 SWAP1 PUSH2 0x15E6 JUMP JUMPDEST SWAP2 POP POP PUSH2 0x971 JUMP JUMPDEST POP PUSH32 0x50A5A05E4FCF8317A50616363E195B0A9C76DB2E758EBBC24078F086E7F62C97 DUP9 DUP5 DUP5 PUSH1 0x40 MLOAD PUSH2 0xABD SWAP4 SWAP3 SWAP2 SWAP1 PUSH2 0x151A JUMP JUMPDEST PUSH1 0x40 MLOAD DUP1 SWAP2 SUB SWAP1 LOG1 POP POP POP POP POP POP POP POP JUMP JUMPDEST PUSH1 0x1 PUSH1 0x0 CALLER PUSH20 0xFFFFFFFFFFFFFFFFFFFFFFFFFFFFFFFFFFFFFFFF AND PUSH20 0xFFFFFFFFFFFFFFFFFFFFFFFFFFFFFFFFFFFFFFFF AND DUP2 MSTORE PUSH1 0x20 ADD SWAP1 DUP2 MSTORE PUSH1 0x20 ADD PUSH1 0x0 KECCAK256 PUSH1 0x0 SWAP1 SLOAD SWAP1 PUSH2 0x100 EXP SWAP1 DIV PUSH1 0xFF AND DUP1 PUSH2 0xB59 JUMPI POP CALLER PUSH20 0xFFFFFFFFFFFFFFFFFFFFFFFFFFFFFFFFFFFFFFFF AND PUSH2 0xB41 PUSH2 0xD48 JUMP JUMPDEST PUSH20 0xFFFFFFFFFFFFFFFFFFFFFFFFFFFFFFFFFFFFFFFF AND EQ JUMPDEST PUSH2 0xB62 JUMPI PUSH1 0x0 DUP1 REVERT JUMPDEST PUSH1 0x0 DUP3 DUP3 PUSH1 0x0 DUP2 DUP2 LT PUSH2 0xB78 JUMPI PUSH2 0xB77 PUSH2 0x14DC JUMP JUMPDEST JUMPDEST SWAP1 POP PUSH1 0x20 MUL ADD CALLDATALOAD SWAP1 POP PUSH1 0x0 CALLVALUE SWAP1 POP PUSH1 0x0 CALLER SWAP1 POP DUP3 DUP3 LT ISZERO PUSH2 0xBCE JUMPI PUSH1 0x40 MLOAD PUSH32 0x8C379A000000000000000000000000000000000000000000000000000000000 DUP2 MSTORE PUSH1 0x4 ADD PUSH2 0xBC5 SWAP1 PUSH2 0x165B JUMP JUMPDEST PUSH1 0x40 MLOAD DUP1 SWAP2 SUB SWAP1 REVERT JUMPDEST DUP5 DUP5 SWAP1 POP DUP8 DUP8 SWAP1 POP EQ PUSH2 0xC16 JUMPI PUSH1 0x40 MLOAD PUSH32 0x8C379A000000000000000000000000000000000000000000000000000000000 DUP2 MSTORE PUSH1 0x4 ADD PUSH2 0xC0D SWAP1 PUSH2 0x17C8 JUMP JUMPDEST PUSH1 0x40 MLOAD DUP1 SWAP2 SUB SWAP1 REVERT JUMPDEST PUSH1 0xC8 DUP8 DUP8 SWAP1 POP GT ISZERO PUSH2 0xC5D JUMPI PUSH1 0x40 MLOAD PUSH32 0x8C379A000000000000000000000000000000000000000000000000000000000 DUP2 MSTORE PUSH1 0x4 ADD PUSH2 0xC54 SWAP1 PUSH2 0x14BC JUMP JUMPDEST PUSH1 0x40 MLOAD DUP1 SWAP2 SUB SWAP1 REVERT JUMPDEST PUSH1 0x0 JUMPDEST DUP8 DUP8 SWAP1 POP DUP2 PUSH1 0xFF AND LT ISZERO PUSH2 0xD05 JUMPI DUP8 DUP8 DUP3 PUSH1 0xFF AND DUP2 DUP2 LT PUSH2 0xC84 JUMPI PUSH2 0xC83 PUSH2 0x14DC JUMP JUMPDEST JUMPDEST SWAP1 POP PUSH1 0x20 MUL ADD PUSH1 0x20 DUP2 ADD SWAP1 PUSH2 0xC99 SWAP2 SWAP1 PUSH2 0x1266 JUMP JUMPDEST PUSH20 0xFFFFFFFFFFFFFFFFFFFFFFFFFFFFFFFFFFFFFFFF AND PUSH2 0x8FC DUP8 DUP8 DUP5 PUSH1 0xFF AND DUP2 DUP2 LT PUSH2 0xCC8 JUMPI PUSH2 0xCC7 PUSH2 0x14DC JUMP JUMPDEST JUMPDEST SWAP1 POP PUSH1 0x20 MUL ADD CALLDATALOAD SWAP1 DUP2 ISZERO MUL SWAP1 PUSH1 0x40 MLOAD PUSH1 0x0 PUSH1 0x40 MLOAD DUP1 DUP4 SUB DUP2 DUP6 DUP9 DUP9 CALL SWAP4 POP POP POP POP PUSH2 0xCF2 JUMPI PUSH1 0x0 DUP1 REVERT JUMPDEST DUP1 DUP1 PUSH2 0xCFD SWAP1 PUSH2 0x15E6 JUMP JUMPDEST SWAP2 POP POP PUSH2 0xC60 JUMP JUMPDEST POP PUSH32 0x714A2ADDAB51B8B8BC3959203D8AA34A8BE7EF33215F404CD2C9FCFA3397523E DUP2 DUP4 PUSH1 0x40 MLOAD PUSH2 0xD37 SWAP3 SWAP2 SWAP1 PUSH2 0x16E7 JUMP JUMPDEST PUSH1 0x40 MLOAD DUP1 SWAP2 SUB SWAP1 LOG1 POP POP POP POP POP POP POP JUMP JUMPDEST PUSH1 0x0 DUP1 PUSH1 0x0 SWAP1 SLOAD SWAP1 PUSH2 0x100 EXP SWAP1 DIV PUSH20 0xFFFFFFFFFFFFFFFFFFFFFFFFFFFFFFFFFFFFFFFF AND SWAP1 POP SWAP1 JUMP JUMPDEST PUSH1 0x1 PUSH1 0x20 MSTORE DUP1 PUSH1 0x0 MSTORE PUSH1 0x40 PUSH1 0x0 KECCAK256 PUSH1 0x0 SWAP2 POP SLOAD SWAP1 PUSH2 0x100 EXP SWAP1 DIV PUSH1 0xFF AND DUP2 JUMP JUMPDEST PUSH2 0xD99 PUSH2 0xFAD JUMP JUMPDEST PUSH20 0xFFFFFFFFFFFFFFFFFFFFFFFFFFFFFFFFFFFFFFFF AND PUSH2 0xDB7 PUSH2 0xD48 JUMP JUMPDEST PUSH20 0xFFFFFFFFFFFFFFFFFFFFFFFFFFFFFFFFFFFFFFFF AND EQ PUSH2 0xE0D JUMPI PUSH1 0x40 MLOAD PUSH32 0x8C379A000000000000000000000000000000000000000000000000000000000 DUP2 MSTORE PUSH1 0x4 ADD PUSH2 0xE04 SWAP1 PUSH2 0x175C JUMP JUMPDEST PUSH1 0x40 MLOAD DUP1 SWAP2 SUB SWAP1 REVERT JUMPDEST PUSH1 0x0 PUSH20 0xFFFFFFFFFFFFFFFFFFFFFFFFFFFFFFFFFFFFFFFF AND DUP2 PUSH20 0xFFFFFFFFFFFFFFFFFFFFFFFFFFFFFFFFFFFFFFFF AND SUB PUSH2 0xE46 JUMPI PUSH1 0x0 DUP1 REVERT JUMPDEST PUSH1 0x1 DUP1 PUSH1 0x0 DUP4 PUSH20 0xFFFFFFFFFFFFFFFFFFFFFFFFFFFFFFFFFFFFFFFF AND PUSH20 0xFFFFFFFFFFFFFFFFFFFFFFFFFFFFFFFFFFFFFFFF AND DUP2 MSTORE PUSH1 0x20 ADD SWAP1 DUP2 MSTORE PUSH1 0x20 ADD PUSH1 0x0 KECCAK256 PUSH1 0x0 PUSH2 0x100 EXP DUP2 SLOAD DUP2 PUSH1 0xFF MUL NOT AND SWAP1 DUP4 ISZERO ISZERO MUL OR SWAP1 SSTORE POP POP JUMP JUMPDEST PUSH2 0xEA8 PUSH2 0xFAD JUMP JUMPDEST PUSH20 0xFFFFFFFFFFFFFFFFFFFFFFFFFFFFFFFFFFFFFFFF AND PUSH2 0xEC6 PUSH2 0xD48 JUMP JUMPDEST PUSH20 0xFFFFFFFFFFFFFFFFFFFFFFFFFFFFFFFFFFFFFFFF AND EQ PUSH2 0xF1C JUMPI PUSH1 0x40 MLOAD PUSH32 0x8C379A000000000000000000000000000000000000000000000000000000000 DUP2 MSTORE PUSH1 0x4 ADD PUSH2 0xF13 SWAP1 PUSH2 0x175C JUMP JUMPDEST PUSH1 0x40 MLOAD DUP1 SWAP2 SUB SWAP1 REVERT JUMPDEST PUSH1 0x0 PUSH20 0xFFFFFFFFFFFFFFFFFFFFFFFFFFFFFFFFFFFFFFFF AND DUP2 PUSH20 0xFFFFFFFFFFFFFFFFFFFFFFFFFFFFFFFFFFFFFFFF AND SUB PUSH2 0xF8B JUMPI PUSH1 0x40 MLOAD PUSH32 0x8C379A000000000000000000000000000000000000000000000000000000000 DUP2 MSTORE PUSH1 0x4 ADD PUSH2 0xF82 SWAP1 PUSH2 0x185A JUMP JUMPDEST PUSH1 0x40 MLOAD DUP1 SWAP2 SUB SWAP1 REVERT JUMPDEST PUSH2 0xF94 DUP2 PUSH2 0xFB5 JUMP JUMPDEST POP JUMP JUMPDEST PUSH1 0x0 DUP2 DUP4 PUSH2 0xFA5 SWAP2 SWAP1 PUSH2 0x187A JUMP JUMPDEST SWAP1 POP SWAP3 SWAP2 POP POP JUMP JUMPDEST PUSH1 0x0 CALLER SWAP1 POP SWAP1 JUMP JUMPDEST PUSH1 0x0 DUP1 PUSH1 0x0 SWAP1 SLOAD SWAP1 PUSH2 0x100 EXP SWAP1 DIV PUSH20 0xFFFFFFFFFFFFFFFFFFFFFFFFFFFFFFFFFFFFFFFF AND SWAP1 POP DUP2 PUSH1 0x0 DUP1 PUSH2 0x100 EXP DUP2 SLOAD DUP2 PUSH20 0xFFFFFFFFFFFFFFFFFFFFFFFFFFFFFFFFFFFFFFFF MUL NOT AND SWAP1 DUP4 PUSH20 0xFFFFFFFFFFFFFFFFFFFFFFFFFFFFFFFFFFFFFFFF AND MUL OR SWAP1 SSTORE POP DUP2 PUSH20 0xFFFFFFFFFFFFFFFFFFFFFFFFFFFFFFFFFFFFFFFF AND DUP2 PUSH20 0xFFFFFFFFFFFFFFFFFFFFFFFFFFFFFFFFFFFFFFFF AND PUSH32 0x8BE0079C531659141344CD1FD0A4F28419497F9722A3DAAFE3B4186F6B6457E0 PUSH1 0x40 MLOAD PUSH1 0x40 MLOAD DUP1 SWAP2 SUB SWAP1 LOG3 POP POP JUMP JUMPDEST PUSH1 0x0 DUP2 DUP4 PUSH2 0x1087 SWAP2 SWAP1 PUSH2 0x18D4 JUMP JUMPDEST SWAP1 POP SWAP3 SWAP2 POP POP JUMP JUMPDEST PUSH1 0x0 DUP1 REVERT JUMPDEST PUSH1 0x0 DUP1 REVERT JUMPDEST PUSH1 0x0 PUSH20 0xFFFFFFFFFFFFFFFFFFFFFFFFFFFFFFFFFFFFFFFF DUP3 AND SWAP1 POP SWAP2 SWAP1 POP JUMP JUMPDEST PUSH1 0x0 PUSH2 0x10C4 DUP3 PUSH2 0x1099 JUMP JUMPDEST SWAP1 POP SWAP2 SWAP1 POP JUMP JUMPDEST PUSH2 0x10D4 DUP2 PUSH2 0x10B9 JUMP JUMPDEST DUP2 EQ PUSH2 0x10DF JUMPI PUSH1 0x0 DUP1 REVERT JUMPDEST POP JUMP JUMPDEST PUSH1 0x0 DUP2 CALLDATALOAD SWAP1 POP PUSH2 0x10F1 DUP2 PUSH2 0x10CB JUMP JUMPDEST SWAP3 SWAP2 POP POP JUMP JUMPDEST PUSH1 0x0 DUP1 REVERT JUMPDEST PUSH1 0x0 DUP1 REVERT JUMPDEST PUSH1 0x0 DUP1 REVERT JUMPDEST PUSH1 0x0 DUP1 DUP4 PUSH1 0x1F DUP5 ADD SLT PUSH2 0x111C JUMPI PUSH2 0x111B PUSH2 0x10F7 JUMP JUMPDEST JUMPDEST DUP3 CALLDATALOAD SWAP1 POP PUSH8 0xFFFFFFFFFFFFFFFF DUP2 GT ISZERO PUSH2 0x1139 JUMPI PUSH2 0x1138 PUSH2 0x10FC JUMP JUMPDEST JUMPDEST PUSH1 0x20 DUP4 ADD SWAP2 POP DUP4 PUSH1 0x20 DUP3 MUL DUP4 ADD GT ISZERO PUSH2 0x1155 JUMPI PUSH2 0x1154 PUSH2 0x1101 JUMP JUMPDEST JUMPDEST SWAP3 POP SWAP3 SWAP1 POP JUMP JUMPDEST PUSH1 0x0 DUP2 SWAP1 POP SWAP2 SWAP1 POP JUMP JUMPDEST PUSH2 0x116F DUP2 PUSH2 0x115C JUMP JUMPDEST DUP2 EQ PUSH2 0x117A JUMPI PUSH1 0x0 DUP1 REVERT JUMPDEST POP JUMP JUMPDEST PUSH1 0x0 DUP2 CALLDATALOAD SWAP1 POP PUSH2 0x118C DUP2 PUSH2 0x1166 JUMP JUMPDEST SWAP3 SWAP2 POP POP JUMP JUMPDEST PUSH1 0x0 DUP1 PUSH1 0x0 DUP1 PUSH1 0x60 DUP6 DUP8 SUB SLT ISZERO PUSH2 0x11AC JUMPI PUSH2 0x11AB PUSH2 0x108F JUMP JUMPDEST JUMPDEST PUSH1 0x0 PUSH2 0x11BA DUP8 DUP3 DUP9 ADD PUSH2 0x10E2 JUMP JUMPDEST SWAP5 POP POP PUSH1 0x20 DUP6 ADD CALLDATALOAD PUSH8 0xFFFFFFFFFFFFFFFF DUP2 GT ISZERO PUSH2 0x11DB JUMPI PUSH2 0x11DA PUSH2 0x1094 JUMP JUMPDEST JUMPDEST PUSH2 0x11E7 DUP8 DUP3 DUP9 ADD PUSH2 0x1106 JUMP JUMPDEST SWAP4 POP SWAP4 POP POP PUSH1 0x40 PUSH2 0x11FA DUP8 DUP3 DUP9 ADD PUSH2 0x117D JUMP JUMPDEST SWAP2 POP POP SWAP3 SWAP6 SWAP2 SWAP5 POP SWAP3 POP JUMP JUMPDEST PUSH1 0x0 DUP1 PUSH1 0x0 PUSH1 0x40 DUP5 DUP7 SUB SLT ISZERO PUSH2 0x121F JUMPI PUSH2 0x121E PUSH2 0x108F JUMP JUMPDEST JUMPDEST PUSH1 0x0 DUP5 ADD CALLDATALOAD PUSH8 0xFFFFFFFFFFFFFFFF DUP2 GT ISZERO PUSH2 0x123D JUMPI PUSH2 0x123C PUSH2 0x1094 JUMP JUMPDEST JUMPDEST PUSH2 0x1249 DUP7 DUP3 DUP8 ADD PUSH2 0x1106 JUMP JUMPDEST SWAP4 POP SWAP4 POP POP PUSH1 0x20 PUSH2 0x125C DUP7 DUP3 DUP8 ADD PUSH2 0x117D JUMP JUMPDEST SWAP2 POP POP SWAP3 POP SWAP3 POP SWAP3 JUMP JUMPDEST PUSH1 0x0 PUSH1 0x20 DUP3 DUP5 SUB SLT ISZERO PUSH2 0x127C JUMPI PUSH2 0x127B PUSH2 0x108F JUMP JUMPDEST JUMPDEST PUSH1 0x0 PUSH2 0x128A DUP5 DUP3 DUP6 ADD PUSH2 0x10E2 JUMP JUMPDEST SWAP2 POP POP SWAP3 SWAP2 POP POP JUMP JUMPDEST PUSH1 0x0 DUP1 DUP4 PUSH1 0x1F DUP5 ADD SLT PUSH2 0x12A9 JUMPI PUSH2 0x12A8 PUSH2 0x10F7 JUMP JUMPDEST JUMPDEST DUP3 CALLDATALOAD SWAP1 POP PUSH8 0xFFFFFFFFFFFFFFFF DUP2 GT ISZERO PUSH2 0x12C6 JUMPI PUSH2 0x12C5 PUSH2 0x10FC JUMP JUMPDEST JUMPDEST PUSH1 0x20 DUP4 ADD SWAP2 POP DUP4 PUSH1 0x20 DUP3 MUL DUP4 ADD GT ISZERO PUSH2 0x12E2 JUMPI PUSH2 0x12E1 PUSH2 0x1101 JUMP JUMPDEST JUMPDEST SWAP3 POP SWAP3 SWAP1 POP JUMP JUMPDEST PUSH1 0x0 DUP1 PUSH1 0x0 DUP1 PUSH1 0x0 PUSH1 0x60 DUP7 DUP9 SUB SLT ISZERO PUSH2 0x1305 JUMPI PUSH2 0x1304 PUSH2 0x108F JUMP JUMPDEST JUMPDEST PUSH1 0x0 PUSH2 0x1313 DUP9 DUP3 DUP10 ADD PUSH2 0x10E2 JUMP JUMPDEST SWAP6 POP POP PUSH1 0x20 DUP7 ADD CALLDATALOAD PUSH8 0xFFFFFFFFFFFFFFFF DUP2 GT ISZERO PUSH2 0x1334 JUMPI PUSH2 0x1333 PUSH2 0x1094 JUMP JUMPDEST JUMPDEST PUSH2 0x1340 DUP9 DUP3 DUP10 ADD PUSH2 0x1106 JUMP JUMPDEST SWAP5 POP SWAP5 POP POP PUSH1 0x40 DUP7 ADD CALLDATALOAD PUSH8 0xFFFFFFFFFFFFFFFF DUP2 GT ISZERO PUSH2 0x1363 JUMPI PUSH2 0x1362 PUSH2 0x1094 JUMP JUMPDEST JUMPDEST PUSH2 0x136F DUP9 DUP3 DUP10 ADD PUSH2 0x1293 JUMP JUMPDEST SWAP3 POP SWAP3 POP POP SWAP3 SWAP6 POP SWAP3 SWAP6 SWAP1 SWAP4 POP JUMP JUMPDEST PUSH1 0x0 DUP1 PUSH1 0x0 DUP1 PUSH1 0x40 DUP6 DUP8 SUB SLT ISZERO PUSH2 0x1398 JUMPI PUSH2 0x1397 PUSH2 0x108F JUMP JUMPDEST JUMPDEST PUSH1 0x0 DUP6 ADD CALLDATALOAD PUSH8 0xFFFFFFFFFFFFFFFF DUP2 GT ISZERO PUSH2 0x13B6 JUMPI PUSH2 0x13B5 PUSH2 0x1094 JUMP JUMPDEST JUMPDEST PUSH2 0x13C2 DUP8 DUP3 DUP9 ADD PUSH2 0x1106 JUMP JUMPDEST SWAP5 POP SWAP5 POP POP PUSH1 0x20 DUP6 ADD CALLDATALOAD PUSH8 0xFFFFFFFFFFFFFFFF DUP2 GT ISZERO PUSH2 0x13E5 JUMPI PUSH2 0x13E4 PUSH2 0x1094 JUMP JUMPDEST JUMPDEST PUSH2 0x13F1 DUP8 DUP3 DUP9 ADD PUSH2 0x1293 JUMP JUMPDEST SWAP3 POP SWAP3 POP POP SWAP3 SWAP6 SWAP2 SWAP5 POP SWAP3 POP JUMP JUMPDEST PUSH2 0x1408 DUP2 PUSH2 0x10B9 JUMP JUMPDEST DUP3 MSTORE POP POP JUMP JUMPDEST PUSH1 0x0 PUSH1 0x20 DUP3 ADD SWAP1 POP PUSH2 0x1423 PUSH1 0x0 DUP4 ADD DUP5 PUSH2 0x13FF JUMP JUMPDEST SWAP3 SWAP2 POP POP JUMP JUMPDEST PUSH1 0x0 DUP2 ISZERO ISZERO SWAP1 POP SWAP2 SWAP1 POP JUMP JUMPDEST PUSH2 0x143E DUP2 PUSH2 0x1429 JUMP JUMPDEST DUP3 MSTORE POP POP JUMP JUMPDEST PUSH1 0x0 PUSH1 0x20 DUP3 ADD SWAP1 POP PUSH2 0x1459 PUSH1 0x0 DUP4 ADD DUP5 PUSH2 0x1435 JUMP JUMPDEST SWAP3 SWAP2 POP POP JUMP JUMPDEST PUSH1 0x0 DUP3 DUP3 MSTORE PUSH1 0x20 DUP3 ADD SWAP1 POP SWAP3 SWAP2 POP POP JUMP JUMPDEST PUSH32 0x657863656564206D617820616C6C6F7765640000000000000000000000000000 PUSH1 0x0 DUP3 ADD MSTORE POP JUMP JUMPDEST PUSH1 0x0 PUSH2 0x14A6 PUSH1 0x12 DUP4 PUSH2 0x145F JUMP JUMPDEST SWAP2 POP PUSH2 0x14B1 DUP3 PUSH2 0x1470 JUMP JUMPDEST PUSH1 0x20 DUP3 ADD SWAP1 POP SWAP2 SWAP1 POP JUMP JUMPDEST PUSH1 0x0 PUSH1 0x20 DUP3 ADD SWAP1 POP DUP2 DUP2 SUB PUSH1 0x0 DUP4 ADD MSTORE PUSH2 0x14D5 DUP2 PUSH2 0x1499 JUMP JUMPDEST SWAP1 POP SWAP2 SWAP1 POP JUMP JUMPDEST PUSH32 0x4E487B7100000000000000000000000000000000000000000000000000000000 PUSH1 0x0 MSTORE PUSH1 0x32 PUSH1 0x4 MSTORE PUSH1 0x24 PUSH1 0x0 REVERT JUMPDEST PUSH2 0x1514 DUP2 PUSH2 0x115C JUMP JUMPDEST DUP3 MSTORE POP POP JUMP JUMPDEST PUSH1 0x0 PUSH1 0x60 DUP3 ADD SWAP1 POP PUSH2 0x152F PUSH1 0x0 DUP4 ADD DUP7 PUSH2 0x13FF JUMP JUMPDEST PUSH2 0x153C PUSH1 0x20 DUP4 ADD DUP6 PUSH2 0x13FF JUMP JUMPDEST PUSH2 0x1549 PUSH1 0x40 DUP4 ADD DUP5 PUSH2 0x150B JUMP JUMPDEST SWAP5 SWAP4 POP POP POP POP JUMP JUMPDEST PUSH2 0x155A DUP2 PUSH2 0x1429 JUMP JUMPDEST DUP2 EQ PUSH2 0x1565 JUMPI PUSH1 0x0 DUP1 REVERT JUMPDEST POP JUMP JUMPDEST PUSH1 0x0 DUP2 MLOAD SWAP1 POP PUSH2 0x1577 DUP2 PUSH2 0x1551 JUMP JUMPDEST SWAP3 SWAP2 POP POP JUMP JUMPDEST PUSH1 0x0 PUSH1 0x20 DUP3 DUP5 SUB SLT ISZERO PUSH2 0x1593 JUMPI PUSH2 0x1592 PUSH2 0x108F JUMP JUMPDEST JUMPDEST PUSH1 0x0 PUSH2 0x15A1 DUP5 DUP3 DUP6 ADD PUSH2 0x1568 JUMP JUMPDEST SWAP2 POP POP SWAP3 SWAP2 POP POP JUMP JUMPDEST PUSH32 0x4E487B7100000000000000000000000000000000000000000000000000000000 PUSH1 0x0 MSTORE PUSH1 0x11 PUSH1 0x4 MSTORE PUSH1 0x24 PUSH1 0x0 REVERT JUMPDEST PUSH1 0x0 PUSH1 0xFF DUP3 AND SWAP1 POP SWAP2 SWAP1 POP JUMP JUMPDEST PUSH1 0x0 PUSH2 0x15F1 DUP3 PUSH2 0x15D9 JUMP JUMPDEST SWAP2 POP PUSH1 0xFF DUP3 SUB PUSH2 0x1604 JUMPI PUSH2 0x1603 PUSH2 0x15AA JUMP JUMPDEST JUMPDEST PUSH1 0x1 DUP3 ADD SWAP1 POP SWAP2 SWAP1 POP JUMP JUMPDEST PUSH32 0x496E73756666696369656E742062616C616E6365000000000000000000000000 PUSH1 0x0 DUP3 ADD MSTORE POP JUMP JUMPDEST PUSH1 0x0 PUSH2 0x1645 PUSH1 0x14 DUP4 PUSH2 0x145F JUMP JUMPDEST SWAP2 POP PUSH2 0x1650 DUP3 PUSH2 0x160F JUMP JUMPDEST PUSH1 0x20 DUP3 ADD SWAP1 POP SWAP2 SWAP1 POP JUMP JUMPDEST PUSH1 0x0 PUSH1 0x20 DUP3 ADD SWAP1 POP DUP2 DUP2 SUB PUSH1 0x0 DUP4 ADD MSTORE PUSH2 0x1674 DUP2 PUSH2 0x1638 JUMP JUMPDEST SWAP1 POP SWAP2 SWAP1 POP JUMP JUMPDEST PUSH32 0x6661696C656420746F2073656E64000000000000000000000000000000000000 PUSH1 0x0 DUP3 ADD MSTORE POP JUMP JUMPDEST PUSH1 0x0 PUSH2 0x16B1 PUSH1 0xE DUP4 PUSH2 0x145F JUMP JUMPDEST SWAP2 POP PUSH2 0x16BC DUP3 PUSH2 0x167B JUMP JUMPDEST PUSH1 0x20 DUP3 ADD SWAP1 POP SWAP2 SWAP1 POP JUMP JUMPDEST PUSH1 0x0 PUSH1 0x20 DUP3 ADD SWAP1 POP DUP2 DUP2 SUB PUSH1 0x0 DUP4 ADD MSTORE PUSH2 0x16E0 DUP2 PUSH2 0x16A4 JUMP JUMPDEST SWAP1 POP SWAP2 SWAP1 POP JUMP JUMPDEST PUSH1 0x0 PUSH1 0x40 DUP3 ADD SWAP1 POP PUSH2 0x16FC PUSH1 0x0 DUP4 ADD DUP6 PUSH2 0x13FF JUMP JUMPDEST PUSH2 0x1709 PUSH1 0x20 DUP4 ADD DUP5 PUSH2 0x150B JUMP JUMPDEST SWAP4 SWAP3 POP POP POP JUMP JUMPDEST PUSH32 0x4F776E61626C653A2063616C6C6572206973206E6F7420746865206F776E6572 PUSH1 0x0 DUP3 ADD MSTORE POP JUMP JUMPDEST PUSH1 0x0 PUSH2 0x1746 PUSH1 0x20 DUP4 PUSH2 0x145F JUMP JUMPDEST SWAP2 POP PUSH2 0x1751 DUP3 PUSH2 0x1710 JUMP JUMPDEST PUSH1 0x20 DUP3 ADD SWAP1 POP SWAP2 SWAP1 POP JUMP JUMPDEST PUSH1 0x0 PUSH1 0x20 DUP3 ADD SWAP1 POP DUP2 DUP2 SUB PUSH1 0x0 DUP4 ADD MSTORE PUSH2 0x1775 DUP2 PUSH2 0x1739 JUMP JUMPDEST SWAP1 POP SWAP2 SWAP1 POP JUMP JUMPDEST PUSH32 0x696E76616C696420696E70757400000000000000000000000000000000000000 PUSH1 0x0 DUP3 ADD MSTORE POP JUMP JUMPDEST PUSH1 0x0 PUSH2 0x17B2 PUSH1 0xD DUP4 PUSH2 0x145F JUMP JUMPDEST SWAP2 POP PUSH2 0x17BD DUP3 PUSH2 0x177C JUMP JUMPDEST PUSH1 0x20 DUP3 ADD SWAP1 POP SWAP2 SWAP1 POP JUMP JUMPDEST PUSH1 0x0 PUSH1 0x20 DUP3 ADD SWAP1 POP DUP2 DUP2 SUB PUSH1 0x0 DUP4 ADD MSTORE PUSH2 0x17E1 DUP2 PUSH2 0x17A5 JUMP JUMPDEST SWAP1 POP SWAP2 SWAP1 POP JUMP JUMPDEST PUSH32 0x4F776E61626C653A206E6577206F776E657220697320746865207A65726F2061 PUSH1 0x0 DUP3 ADD MSTORE PUSH32 0x6464726573730000000000000000000000000000000000000000000000000000 PUSH1 0x20 DUP3 ADD MSTORE POP JUMP JUMPDEST PUSH1 0x0 PUSH2 0x1844 PUSH1 0x26 DUP4 PUSH2 0x145F JUMP JUMPDEST SWAP2 POP PUSH2 0x184F DUP3 PUSH2 0x17E8 JUMP JUMPDEST PUSH1 0x40 DUP3 ADD SWAP1 POP SWAP2 SWAP1 POP JUMP JUMPDEST PUSH1 0x0 PUSH1 0x20 DUP3 ADD SWAP1 POP DUP2 DUP2 SUB PUSH1 0x0 DUP4 ADD MSTORE PUSH2 0x1873 DUP2 PUSH2 0x1837 JUMP JUMPDEST SWAP1 POP SWAP2 SWAP1 POP JUMP JUMPDEST PUSH1 0x0 PUSH2 0x1885 DUP3 PUSH2 0x115C JUMP JUMPDEST SWAP2 POP PUSH2 0x1890 DUP4 PUSH2 0x115C JUMP JUMPDEST SWAP3 POP DUP2 PUSH32 0xFFFFFFFFFFFFFFFFFFFFFFFFFFFFFFFFFFFFFFFFFFFFFFFFFFFFFFFFFFFFFFFF DIV DUP4 GT DUP3 ISZERO ISZERO AND ISZERO PUSH2 0x18C9 JUMPI PUSH2 0x18C8 PUSH2 0x15AA JUMP JUMPDEST JUMPDEST DUP3 DUP3 MUL SWAP1 POP SWAP3 SWAP2 POP POP JUMP JUMPDEST PUSH1 0x0 PUSH2 0x18DF DUP3 PUSH2 0x115C JUMP JUMPDEST SWAP2 POP PUSH2 0x18EA DUP4 PUSH2 0x115C JUMP JUMPDEST SWAP3 POP DUP3 PUSH32 0xFFFFFFFFFFFFFFFFFFFFFFFFFFFFFFFFFFFFFFFFFFFFFFFFFFFFFFFFFFFFFFFF SUB DUP3 GT ISZERO PUSH2 0x191F JUMPI PUSH2 0x191E PUSH2 0x15AA JUMP JUMPDEST JUMPDEST DUP3 DUP3 ADD SWAP1 POP SWAP3 SWAP2 POP POP JUMP INVALID LOG2 PUSH5 0x6970667358 0x22 SLT KECCAK256 CALLVALUE 0x4A 0x5C RETURNDATACOPY DUP16 0xC8 COINBASE SWAP8 0x49 0xC0 DUP16 PUSH31 0xAFC1CBC6044D024F4BCC2005F5B3F36B8896056764736F6C634300080D0033 "
        },
        "methodIdentifiers": {
          "addAuthorized(address)": "cf1c316a",
          "authorized(address)": "b9181611",
          "ethSendDifferentValue(address[],uint256[])": "8602c8d3",
          "ethSendSameValue(address[],uint256)": "20fa6fd9",
          "owner()": "8da5cb5b",
          "removeAuthorized(address)": "485d7d94",
          "renounceOwnership()": "715018a6",
          "sendDifferentValue(address,address[],uint256[])": "848da830",
          "sendSameValue(address,address[],uint256)": "16167600",
          "transferOwnership(address)": "f2fde38b"
        }
      }
    }
  }
}